:020000040800F2
:10000000B0040020AD010008B5010008B7010008E8
:10001000B9010008BB010008BD0100080000000094
:100020000000000000000000000000000F100008A9
:10003000C1010008000000000D10000811100008A8
:10004000C7010008C7010008C7010008C701000870
:10005000C7010008C7010008C7010008C701000860
:10006000C7010008C7010008C7010008C701000850
:10007000C7010008C7010008C7010008C701000840
:10008000C7010008C7010008C70100080000000000
:10009000000000000000000000000000C701000890
:1000A000C7010008C7010008C7010008C701000810
:1000B000C7010008C7010008C7010008C701000800
:1000C000C7010008C7010008C7010008C7010008F0
:1000D000C7010008C7010008C701000800000000B0
:1000E000C7010008C7010008C701000800000000A0
:1000F000000000000000000000000000C701000830
:1001000000000000C7010008C7010008C70100087F
:1001100000000000000000000000000000000000DF
:10012000C7010008C7010008C7010008C70100088F
:10013000C7010008000000000000000000000000EF
:10014000000000000000000000000000C7010008DF
:10015000C7010008C7010008C7010008C70100085F
:10016000C7010008C70100080000000000000000EF
:10017000000000000000000000000000000000007F
:1001800000000000C701000800000000000000009F
:10019000C7010008C7010008DFF80CD000F068F8BC
:1001A0000048004785130008B00400200648804737
:1001B00006480047FEE7FEE7FEE7FEE7FEE7FEE74C
:1001C000FEE7FEE7FEE7FEE7BD1000089901000824
:1001D0002DE9F05F0546002092469B46884606467C
:1001E000814640241BE0284641464746224600F00F
:1001F0002FF853465A46C01A914110D3114618465B
:10020000224600F016F82D1A67EB01084F462246E9
:100210000120002100F00DF817EB00094E41201ECF
:10022000A4F10104DFDC484631462A464346BDE8D6
:10023000F09F202A04DB203A00FA02F100207047E8
:100240009140C2F1200320FA03F319439040704714
:10025000202A04DB203A21FA02F00021704721FA1B
:1002600002F3D040C2F12002914008431946704782
:10027000064C074D06E0E06840F0010394E80700F3
:1002800098471034AC42F6D3FFF78AFF44140008B5
:100290006414000870B5044600F0D8F80546601CE8
:1002A00002D004480078044400F0D0F8401BA0427B
:1002B000FAD370BD000000202DE9F84FDFF860B1DF
:1002C00000224FF001084FF0030A4FF00F090BF125
:1002D000040E00BF0B6808FA02F42340A3426ED15B
:1002E0004D68022D01D0122D0ED1D50800EB850CE2
:1002F000DCF820505607F70E09FA07F6B5430E69E9
:10030000BE402E43CCF82060066855000F790AFAEB
:1003100005FC07F0030726EA0C06AF4037430760E9
:100320004E68012E05D0022E03D0112E01D0122EC0
:100330000ED18668CF6826EA0C06AF403743876047
:100340004668A6430C79C4F30014944034434460D7
:10035000C6688C6826EA0C06AC403443C4604C681E
:10036000E40056D52F4C256845F480452560246867
:1003700022F0030504F4804400942B4C2E19D6F887
:10038000084895072F0F09FA07F5AC43274DA842F7
:1003900001D1002515E0264DA84201D1012510E02C
:1003A000244DA84201D102250BE0234DA84201D1E2
:1003B000032506E0214DA84202D1042501E028E0F2
:1003C0000725BD402543C6F80858DBF800405D46C8
:1003D0004E689C43F60300D51C432C60DEF80040B9
:1003E00075464E689C43B60300D51C432C600C4DEB
:1003F00008352C684E689C43F60200D51C432C60DF
:10040000074D0C352C684E689C43B60200D51C4342
:100410002C60521C102AFFF45DAFBDE8F88F00007D
:10042000003C0140443802400030014000000240DE
:100430000004024000080240000C0240001002408C
:100440000AB1816170470904FBE700000148806838
:1004500070470000000000200248816802781144C3
:1004600081607047000000200B4810B5016841F41E
:1004700000710160016841F480610160016841F42C
:1004800080710160032000F08BF8002000F006F876
:1004900000F024F8002010BD003C024070B50D4D66
:1004A00004464FF47A712878B1FBF0F00A490968E4
:1004B000B1FBF0F000F0EFFA48B9102C07D200229F
:1004C0002146501E00F04CF800206C6070BD0120E9
:1004D00070BD0000000000200C0000201F4808B57F
:1004E000016841F480410160006800F480400090A0
:1004F0001A48001F016841F080510160006800F057
:1005000080500090072000F04BF8002211466FF059
:100510000B0000F025F8002211466FF00A0000F0F1
:100520001FF8002211466FF0090000F019F80022B0
:100530001146501F00F014F800221146101F00F061
:100540000FF800221146901E00F00AF80022BDE8C4
:1005500008401146501E00F003B800004438024025
:10056000F0B40E4B1B680C46C3F30223C3F107051E
:10057000042D00D90425191D072901D2002300E00C
:10058000DB1E012606FA05F1491E214099409E40D6
:10059000761E16403143F0BC00F028BD0CED00E0A3
:1005A000064900F0070208684FF6FF03184040EACA
:1005B0000220034A10430860704700000CED00E081
:1005C0000000FA052DE9F0470E46050065D0DFF87A
:1005D0001481D8F80000F7B200F00F00B04207D243
:1005E00088F80070D8F8000000F00F00B04254D135
:1005F00028683D4C810712D5400703D5206840F498
:10060000E05020602878000703D5206840F460405F
:1006100020602068A96820F0F00008432060287856
:10062000C0072DD0304968680839012812D0022847
:1006300013D0032811D00968890700292DDA216811
:1006400021F0030101432160FFF700FF814641F2E1
:10065000883A0EE009688903EFE709688901ECE749
:10066000FFF7F4FEA0EB0901514502D90320BDE8D4
:10067000F0872068696800F00C00B0EB810FEFD1C3
:10068000D8F80010404601F00F01B14207D90770B9
:10069000006800F00F00B04201D00120E7E72878A1
:1006A000400705D52068E96820F4E0500843206041
:1006B0002878000706D52068296920F4604040EAC0
:1006C000C100206000F01CF82168084AC1F3031142
:1006D000515CC840064908600020FFF7DFFE00209B
:1006E000C5E70000003C0240083802403214000810
:1006F0000C00002001480068704700000C0000203A
:10070000154810B5006810F00C02144813D04110C1
:10071000042A0FD0082A0ED10F4C241F2268236808
:1007200002F03F025B0207D52068C0F38810A0FBEF
:10073000010106E0084610BD2168C1F38811A1FB44
:1007400000010023FFF744FD2168C1F30141491C6A
:100750004900B0FBF1F010BD083802400024F4005D
:100760002DE9F84F050076D02878DFF8F8B2BE4CB6
:10077000C00749D0DBF800105846C1F381010129B8
:1007800008D00068C0F3810002280AD1201D00684B
:10079000400206D52068800336D568680028E2D07C
:1007A00032E06868B0F5803F10D0B0F5A02F206827
:1007B00010D020F480302060206820F48020206059
:1007C0006868A0B1FFF742FE06460CE0206840F4DE
:1007D0008030F4E740F480202060F7E7FFF736FE32
:1007E000801B642873D820688003F7D50CE0FFF7DE
:1007F0002DFE064605E000BFFFF728FE801B64289B
:10080000F0D820688003F7D42878DFF8608280076A
:100810004FF000093ED5DBF80010584611F00C0FE0
:1008200009D00068C0F3810002280BD18D48001F59
:100830000068400206D42068800715D5E8680128C2
:1008400009D111E0E868B8B10120C8F80000FFF74D
:10085000FDFD064605E002E1FFF7F8FD801B0228DA
:10086000C0D820688007F7D52068296920F0F800F3
:1008700040EAC10020600DE0C8F80090FFF7E6FDF7
:10088000064604E0FFF7E2FD801B02281FD820681F
:100890008007F7D42878000722D5724E744869691A
:1008A0006C3671B101210160FFF7D0FD074604E00D
:1008B000FFF7CCFDC01B022809D830688007F7D5A8
:1008C0000EE0C0F80090FFF7C1FD074605E083E0A9
:1008D000FFF7BCFDC01B02287ED830688007F7D424
:1008E0002878400768D5DFF87CA100270AF1380A8C
:1008F000DAF80000C0000BD4DAF8001041F08051A3
:10090000CAF80010DAF80000012700F080500090CB
:10091000584E3068C00510D4306840F480703060A4
:10092000FFF794FD009005E0FFF790FD0099401A55
:10093000022851D83068C005F6D54A4EA8686836F6
:1009400001280FD00528306810D020F00100306059
:10095000306820F004003060A868B8B1FFF776FD79
:1009600000900FE0306840F00100F4E740F0040030
:100970003060F7E7FFF76AFD0099411A41F28830CD
:10098000814264D830688007F4D50EE0FFF75EFD41
:10099000009007E0FFF75AFD0099411A41F28830B4
:1009A000814254D830688007F4D42FB1DAF80010AF
:1009B00021F08051CAF80010A869C0B3DBF800101C
:1009C000C1F3810102294AD00228484607D0C8F85D
:1009D0006000FFF73BFD00E039E005463AE047469E
:1009E000C8F86000FFF732FD064604E0FFF72EFD71
:1009F000801B02282BD820688001F7D4D5E9070195
:100A00000843A96A1C4A490802EB01416A6A41EAA3
:100A10008211084395F82C1040EA01611148001F2B
:100A2000016001203866FFF711FD054605E014E07E
:100A3000FFF70CFD401B022809D820688001F7D57C
:100A40000BE000BFFFF702FD401B022802D9032084
:100A5000BDE8F88F20688001F4D40020F8E7012079
:100A6000F6E7000008380240003802400000474224
:100A7000800E4742007000400000FFFF4FF0E02171
:100A80000428086903D020F004000861704740F092
:100A90000400FAE7704710B5401EB0F1807F01D323
:100AA000012010BD4FF0E02460610F21601700F0BD
:100AB0009DFA0020A06107202061002010BD10B524
:100AC000FFF7E8FF10BD10B590F83820012A25D0B7
:100AD000012280F83820CA688C6822F440722243D0
:100AE0004C6822F4806222430C6822F400622243A4
:100AF0000C6922F4805222434C6922F400522243B2
:100B00008C6922F48042224322F4004102680023CF
:100B10002143516480F83830002010BD022010BD00
:100B200030B590F83820012A20D0012280F83820F2
:100B3000022380F8393003685C6824F070045C603C
:100B400003685C680D682C435C6003689C6824F053
:100B500080049C6003689C6849680C439C6080F832
:100B60003920002180F83810084630BD022030BD01
:100B700010B5040003D094F8390010B107E001204B
:100B800010BD002084F83800204600F00DF8022047
:100B900084F83900211D206800F0BAFA012084F899
:100BA0003900002010BD000008B500680C498842DB
:100BB00008D10C48016841F001010160006800F0B3
:100BC00001000BE00849884209D10648001F01686E
:100BD00041F002010160006800F00200009008BDD1
:100BE00000000140443802400004004070B5044653
:100BF00090F83800012817D0012584F838500220D9
:100C000084F839002068826822F0770222F47F425B
:100C100082600868502837D00DDC202859D005DCC8
:100C200088B3102841D151E0022070BD302853D044
:100C300040283AD13FE060282ED070280BD0B0F584
:100C4000805F03D0B0F5005F2FD110E0206881688D
:100C500021F0070115E0CB68D1E90121206800F0FF
:100C6000AAFA2168886840F0770088601DE0CB68A8
:100C7000D1E90121206800F09EFA2068816841F4E2
:100C80008041816011E01EE0CA684968206800F078
:100C900047FB5021206806E0CA684968206800F0D8
:100CA00050FB6021206800F090FA84F83950002051
:100CB00084F8380070BDCA684968206800F030FBCD
:100CC00040212068EFE700212068ECE71021206830
:100CD000E9E720212068E6E730212068E3E700000B
:100CE00000B5104B02680021022085B09A4209D15C
:100CF00002020092CDE901010120CDE9031069460D
:100D000009480AE0094B9A4209D140220092CDE9F4
:100D10000101CDE9031069460548FFF7CDFA05B09A
:100D200000BD00000000014000100240000400402F
:100D30000000024070B5044690F838000D460128C6
:100D40000DD0012684F83860022084F8390042B1C1
:100D5000042A18D0082A2AD00C2A4DD139E00220C2
:100D600070BD206800F03AFA2068816941F00801FE
:100D700081612068816921F00401816120688169B5
:100D80002A69114311E0206800F050FA2068816957
:100D900041F4006181612068816921F48061816191
:100DA000206881692A6941EA0221816124E0206882
:100DB00000F068FA2068C16941F00801C16120684B
:100DC000C16921F00401C1612068C1692A69114328
:100DD00011E0206800F082FA2068C16941F40061E6
:100DE000C1612068C16921F48061C1612068C16965
:100DF0002A6941EA0221C16184F83960002084F83F
:100E0000380070BD10B5040003D094F8390010B15B
:100E100007E0012010BD002084F83800204600F0D3
:100E20000CF8022084F83900211D206800F070F9C8
:100E3000012084F83900002010BD704710B5044629
:100E40000068012200F0ACF907492068884203D10C
:100E5000416C41F4004141642068016841F00101A6
:100E60000160002010BD00000000014070B517486F
:100E700086B00024016841F001010160016801F0C1
:100E800001010591016841F010010160016801F064
:100E900010010591016841F00801016000680C4EE5
:100EA00000F008004FF4A065059000222946304666
:100EB000FFF7C6FA01200095CDE9010469463046E6
:100EC0000394FFF7F9F906B070BD00003038024016
:100ED000000C024010B5264894B02449016010214E
:100EE0000024C0E901144FF47A71C0E9031444618D
:100EF000FFF73EFE00B1FEE74FF480500E900EA9C2
:100F00001B48FFF773FE00B1FEE71948FFF77AFFB1
:100F100000B1FEE7129412A915481394FFF700FEE2
:100F200000B1FEE76020CDE900040294039404942C
:100F30000594002269460E480694FFF7FBFE00B1B7
:100F4000FEE70794089409944FF400500A94CDE901
:100F50000B4007A906480D94FFF7B5FD00B1FEE769
:100F60000348FFF7BDFE14B010BD000000000140B3
:100F70001000002010B51C488EB01A4901601021E5
:100F80000024C0E901144FF47A71C0E90314FFF79B
:100F9000EFFD00B1FEE74FF48050079007A912481B
:100FA000FFF724FE00B1FEE70F48FFF72BFF00B16B
:100FB000FEE70B940BA90C480C94FFF7B1FD00B1B0
:100FC000FEE76020CDE9000402940022694606484D
:100FD0000494FFF7AFFE00B1FEE70348FFF780FE81
:100FE0000EB010BD000400404C0000200907090E9F
:100FF000002806DA00F00F0000F1E02080F8141D50
:10100000704700F1E02080F8001470477047704787
:1010100010B5FFF721FABDE81040FFF750BD000002
:10102000244810B5026892B0002142F0805202605C
:10103000006800F0805011901F48026842F440425E
:1010400002600068022400F44040119001200390E7
:1010500010200490009406940820CDE90710CDE9F3
:101060000A40402109916846FFF77AFB00B1FEE78C
:101070000F20CDE90C0490200E904FF480500F907B
:10108000109000210CA8FFF79DFA00B1FEE7FFF7D2
:1010900031FB4FF47A71B0FBF1F0FFF7FCFC042058
:1010A000FFF7ECFC00221146501EFFF759FA12B070
:1010B00010BD000040380240007000401048016838
:1010C00041F4700101600F48016841F001010160C5
:1010D0000C4A00210832116002680B4B1A40026072
:1010E000031D0A4A1A60026822F480220260054841
:1010F0000C300160024958068039086070470000D2
:1011000088ED00E000380240FFFFF6FE10300024BA
:10111000F0B502681B4B1C4C9F031C4D1C4E9842A3
:1011200007D0B84205D0A04203D0A84201D0B042B7
:1011300004D122F0700C4A6842EA0C02984210D0A6
:10114000B8420ED0A0420CD0A8420AD0B04208D07B
:10115000104CA04205D0104CA04202D00F4CA0422F
:1011600003D122F44074CA68224302608A68C262D2
:101170000A688262984201D10969016301214161D3
:10118000F0BD0000000001400004004000080040E5
:10119000000C004000400140004401400048014074
:1011A00010B50123046A8B409C430462036A8A40A1
:1011B0001343036210BD10B5846842EA032224F48D
:1011C0007F440A432243826010BD826822F070028D
:1011D0000A4342F0070181607047000030B5026A9F
:1011E00022F001020262026A4368846924F07305F6
:1011F0000C682C4322F002058A682A430A4DA84253
:101200000BD122F00805CA6823F440732A434D69C4
:1012100022F004021D438B692B43436084614968BB
:101220004163026230BD00000000014030B5026A37
:1012300022F010020262026A436884690D6824F495
:10124000E64444EA05248D6822F0200242EA0512B1
:101250000B4DA8420ED1CD6822F0800242EA051261
:101260004D6923F4406343EA85038D6922F040020F
:1012700043EA85034360846149688163026230BD4B
:101280000000014030B5026A22F480720262036AF3
:101290004268C46923F4007324F073050C682C437E
:1012A0008D6843EA05230C4DA8420ED1CD6823F486
:1012B000006343EA05234D6922F4405242EA0512D5
:1012C0008D6923F4806342EA05124260C461496873
:1012D000C163036230BD00000000014030B5026A06
:1012E00022F480520262046A4268C3690D6823F4E2
:1012F000E64343EA05238D6824F4005444EA0534A8
:10130000064DA84204D14D6922F4804242EA85127A
:101310004260C36149680164046230BD000001405D
:1013200010B5036A046A24F001040462846924F09D
:10133000F00444EA021423F00A020A4384610262C0
:1013400010BD10B5036A23F0100303628369046AB9
:1013500023F4704343EA023224F0A00343EA01116C
:101360008261016210BD02E008C8121F08C1002A94
:10137000FAD170477047002001E001C1121F002A16
:10138000FBD1704700211F4800F044F81D481E4D56
:101390000024A915056081801C498460C0E90341CF
:1013A0000121143000F036F8164829151430056074
:1013B000818017498460C0E90341FFF755F8FFF7C2
:1013C0002FFEFFF753FDFFF785FDFFF7D3FD0D4817
:1013D00000217838FFF732FD0A4800213C38FFF73A
:1013E0002DFD4FF47A70FEF755FF4FF4FA71054862
:1013F00000F019F803484FF4AF71143000F013F8FF
:10140000FEE7000088000020000C024000000140C0
:101410000004004009B1012200E0002282718188AD
:101420000068FFF70DB80269D1620069490841639D
:1014300070470000000000000000010203040607DE
:1014400008090000641400080000002010000000DB
:10145000661300087414000810000020A0040000A7
:1014600076130008010000001000000000000000DA
:041470000024F40060
:040000050800019955
:00000001FF
