:020000040800F2
:1000000070050020AD010008B5010008B701000827
:10001000B9010008BB010008BD0100080000000094
:100020000000000000000000000000008520000823
:10003000C101000800000000CD1F00088720000853
:10004000C7010008C7010008C7010008C701000870
:10005000C7010008C7010008C7010008C701000860
:10006000C7010008C7010008C7010008C701000850
:10007000C7010008C7010008C7010008C701000840
:10008000C7010008C7010008C70100080000000000
:10009000000000000000000000000000C701000890
:1000A000C7010008C7010008C7010008C701000810
:1000B000C7010008C7010008C7010008C701000800
:1000C000C7010008C7010008C7010008C7010008F0
:1000D000C7010008C7010008C701000800000000B0
:1000E000C7010008C7010008C701000800000000A0
:1000F000000000000000000000000000C701000830
:1001000000000000C7010008C7010008C70100087F
:1001100000000000000000000000000000000000DF
:10012000C7010008C7010008C7010008C70100088F
:10013000C7010008000000000000000000000000EF
:10014000000000000000000000000000C7010008DF
:10015000C7010008C7010008C7010008C70100085F
:10016000C7010008C70100080000000000000000EF
:10017000000000000000000000000000000000007F
:1001800000000000C701000800000000000000009F
:10019000C7010008C7010008DFF80CD000F068F8BC
:1001A00000480047F92300087005002006488047F2
:1001B00006480047FEE7FEE7FEE7FEE7FEE7FEE74C
:1001C000FEE7FEE7FEE7FEE731210008990100089F
:1001D0002DE9F05F0546002092469B46884606467C
:1001E000814640241BE0284641464746224600F00F
:1001F0002FF853465A46C01A914110D3114618465B
:10020000224600F016F82D1A67EB01084F462246E9
:100210000120002100F00DF817EB00094E41201ECF
:10022000A4F10104DFDC484631462A464346BDE8D6
:10023000F09F202A04DB203A00FA02F100207047E8
:100240009140C2F1200320FA03F319439040704714
:10025000202A04DB203A21FA02F00021704721FA1B
:1002600002F3D040C2F12002914008431946704782
:10027000064C074D06E0E06840F0010394E80700F3
:1002800098471034AC42F6D3FFF78AFF44260008A3
:100290006426000870B5044600F0DCF80546601CD2
:1002A00002D004480078044400F0D4F8401BA04277
:1002B000FAD370BD100000202DE9F84FDFF860B1CF
:1002C00000224FF001084FF0030A4FF00F090BF125
:1002D000040E00BF0B6808FA02F42340A3426ED15B
:1002E0004D68022D01D0122D0ED1D50800EB850CE2
:1002F000DCF820505607F70E09FA07F6B5430E69E9
:10030000BE402E43CCF82060066855000F790AFAEB
:1003100005FC07F0030726EA0C06AF4037430760E9
:100320004E68012E05D0022E03D0112E01D0122EC0
:100330000ED18668CF6826EA0C06AF403743876047
:100340004668A6430C79C4F30014944034434460D7
:10035000C6688C6826EA0C06AC403443C4604C681E
:10036000E40056D52F4C256845F480452560246867
:1003700022F0030504F4804400942B4C2E19D6F887
:10038000084895072F0F09FA07F5AC43274DA842F7
:1003900001D1002515E0264DA84201D1012510E02C
:1003A000244DA84201D102250BE0234DA84201D1E2
:1003B000032506E0214DA84202D1042501E028E0F2
:1003C0000725BD402543C6F80858DBF800405D46C8
:1003D0004E689C43F60300D51C432C60DEF80040B9
:1003E00075464E689C43B60300D51C432C600C4DEB
:1003F00008352C684E689C43F60200D51C432C60DF
:10040000074D0C352C684E689C43B60200D51C4342
:100410002C60521C102AFFF45DAFBDE8F88F00007D
:10042000003C0140443802400030014000000240DE
:100430000004024000080240000C0240001002408C
:1004400042694A40426170470AB1816170470904BC
:10045000FBE70000014880687047000010000020A2
:1004600070B5040004D094F83D00002510B106E0FA
:10047000012070BD84F83C50204600F0C1FA2420D1
:1004800084F83D002068016821F00101016000F05E
:1004900031FC33492268B0FBF1F15160314A6368A5
:1004A000934206D94FF4967359434FF47A73B1FBD4
:1004B000F3F12368491C1962616891420BD8490025
:1004C000B0FBF1F2C2F30B02042A01D2042019E0BE
:1004D000B0FBF1F016E0A3689BB301EBC10202EBA5
:1004E0000112B0FBF2F242F48042120530D04BB35D
:1004F00001EBC10202EB0111B0FBF1F040F48040CE
:1005000040F400402168C861D4E90701084321682C
:100510000860D4E90310084321688860D4E9050124
:1005200008432168C8602068016841F0010101604A
:100530002564202084F83D00256384F83E50002087
:1005400070BD00E006E001EB4102B0FBF2F2CCE747
:100550000120D7E701EB4101B0FBF1F0D0E700004B
:1005600040420F00A08601002DE9FF4F81B099465F
:100570008B4604464FF00108FFF76CFF054694F8E0
:100580003D0020287BD1192301224D4920460095AA
:1005900001F027FB002872D194F83C0001286ED0AE
:1005A000012084F83C0020680168C90703D1016874
:1005B00041F0010101602068016821F400610160DF
:1005C000242084F83D00002626643E48E06220276F
:1005D0002068016841F4807101604B4600224FF0B1
:1005E00001112046009501F0FCFA002858D121683D
:1005F0000BF0FE000861FFF72DFF216805464869F2
:100600004969C0F3400094F83D20C1F380214FF0C8
:10061000A00A12E0B9F1000F04D0FFF71BFF411B45
:10062000494501D984F83DA0216848694969C0F36A
:10063000400094F83D20C1F38021084301D1A02A55
:10064000E8D184F83D7020684169C943890717D40F
:10065000016841F4007101602068416980691923D3
:10066000012217492046009501F0BBFAC0B984F871
:100670003D7084F83C60002005B0BDE8F08F1DE0BF
:10068000016841F40071016021686FF48060486185
:10069000192301220A492046009501F0A2FA08B167
:1006A0000320E9E74146039808F1010881428FD30E
:1006B00084F83D7084F83C600120DDE70220DBE730
:1006C000020010000000FFFF2DE9FF4F83B09A46A3
:1006D000DDE9118793460446DDF84090FFF7BAFE46
:1006E000054694F83D00202874D11923012272494F
:1006F0002046009501F075FA0028F5D194F83C00E9
:10070000012867D0012084F83C0020680168C907EF
:1007100003D1016841F0010101602068016821F402
:1007200000610160222084F83D00402084F83E00F2
:1007300000262664C4F82490A4F82A805F48E0626A
:10074000608D2085CDE9007553465A4620460499B0
:1007500001F058F928B1206C84F83C60042843D09B
:1007600076E0208DC8B1012820D00228206823D04F
:10077000416980690090208D03286BD801282AD018
:100780004F4902283B464FF0000200955BD0884657
:10079000204601F026FAE8BB40E020684169816903
:1007A0000091016841F40071016076E02068016801
:1007B00021F480610160F0E7016821F4806101604B
:1007C0002068016841F40061016020684169806926
:1007D000009062E06EE02A463946204601F076FA43
:1007E00030B1206C202833D0012007B0BDE8F08F55
:1007F000206847E02068016841F4007101602068CA
:100800000169606A421C62620170208D401E208571
:10081000608D00E01CE0401E6085E9E7206801680B
:1008200021F48061016020680169606A421C626293
:100830000170208D401E2085608D401E60853B46E6
:10084000002241460095204601F0CBF90028D1D086
:100850000320CAE72A463946204601F037FA002825
:10086000BFD120680169606A421C62620170208DFC
:10087000401E2085608D401E608520684169C94307
:1008800049070AD40169606A421C62620170208DC6
:10089000401E2085608D401E6085208D00287FF4DD
:1008A0006AAF202084F83D0084F83E6084F83C6004
:1008B00000209AE7022098E7020010000000FFFFE6
:1008C000040001002DE9FF4F83B09A46DDE911874E
:1008D00093460446DDF84090FFF7BCFD064694F8C9
:1008E0003D0020287DD1192301224349204600964E
:1008F00001F077F900287CD194F83C00012878D0E9
:10090000012084F83C0020680168C90703D1016810
:1009100041F0010101602068016821F4006101607B
:10092000212084F83D00402084F83E000025256405
:10093000C4F82490A4F82A803048E062608D2085B5
:10094000CDE9007653465A462046049901F0D2F884
:1009500080B3206C84F83C50042848D008E032462C
:100960003946204601F0E3F930B1206C042839D033
:10097000032007B0BDE8F08F606A411C6162216806
:1009800000780861208D401E80B22085618D491E4F
:10099000618521684A69D24352070BD468B1606A05
:1009A000421C626200780861208D401E2085608DA7
:1009B000401E6085208D0028D1D132463946204620
:1009C00001F0E8F80028D0D154F83D0B016841F45B
:1009D00000710160202004F81E09E577657700208A
:1009E000C7E706E02068016841F40071016001205A
:1009F000BFE70220BDE70000020010000000FFFF7B
:100A000000B500680E4987B0884217D14FF41070C6
:100A100000901220019001200290032003900420F6
:100A2000049069460748FFF747FC0748016841F40E
:100A300000110160006800F40010059007B000BDCF
:100A400000540040000402404038024002488168DF
:100A50000278114481607047100000200B4810B5E7
:100A6000016841F400710160016841F48061016036
:100A7000016841F480710160032000F08BF80020D0
:100A800000F006F800F024F8002010BD003C024001
:100A900070B50D4D04464FF47A712878B1FBF0F033
:100AA0000A490968B1FBF0F000F0ADFD48B9102C1F
:100AB00007D200222146501E00F04CF800206C6046
:100AC00070BD012070BD0000100000201C0000203F
:100AD0001F4808B5016841F480410160006800F4D6
:100AE000804000901A48001F016841F08051016069
:100AF000006800F080500090072000F04BF80022C2
:100B000011466FF00B0000F025F8002211466FF03F
:100B10000A0000F01FF8002211466FF0090000F0F3
:100B200019F800221146501F00F014F80022114657
:100B3000101F00F00FF800221146901E00F00AF876
:100B40000022BDE808401146501E00F003B8000026
:100B500044380240F0B40E4B1B680C46C3F302232A
:100B6000C3F10705042D00D90425191D072901D259
:100B7000002300E0DB1E012606FA05F1491E214094
:100B800099409E40761E16403143F0BC01F00EBAEB
:100B90000CED00E0064900F0070208684FF6FF037D
:100BA000184040EA0220034A1043086070470000E2
:100BB0000CED00E00000FA052DE9F0470E460500B7
:100BC00065D0DFF81481D8F80000F7B200F00F000C
:100BD000B04207D288F80070D8F8000000F00F008B
:100BE000B04254D128683D4C810712D5400703D547
:100BF000206840F4E05020602878000703D5206882
:100C000040F4604020602068A96820F0F0000843AC
:100C100020602878C0072DD030496868083901283D
:100C200012D0022813D0032811D00968890700299F
:100C30002DDA216821F0030101432160FFF70AFC4E
:100C4000814641F2883A0EE009688903EFE70968B6
:100C50008901ECE7FFF7FEFBA0EB0901514502D942
:100C60000320BDE8F0872068696800F00C00B0EB55
:100C7000810FEFD1D8F80010404601F00F01B142CA
:100C800007D90770006800F00F00B04201D00120C2
:100C9000E7E72878400705D52068E96820F4E050A8
:100CA000084320602878000706D52068296920F4C9
:100CB000604040EAC100206000F02CF82168084A3A
:100CC000C1F30311515CC840064908600020FFF7DA
:100CD000DFFE0020C5E70000003C0240083802406B
:100CE0002C2600081C000020014800687047000006
:100CF0001C0000200448054900680968044AC1F343
:100D00008221515CC84070471C0000200838024016
:100D10003C260008154810B5006810F00C02144875
:100D200013D04110042A0FD0082A0ED10F4C241FD3
:100D30002268236802F03F025B0207D52068C0F3F7
:100D40008810A0FB010106E0084610BD2168C1F330
:100D50008811A1FB00010023FFF73AFA2168C1F3D3
:100D60000141491C4900B0FBF1F010BD08380240B8
:100D70000024F4002DE9F84F050076D02878DFF83C
:100D8000F8B2BE4CC00749D0DBF800105846C1F39A
:100D90008101012908D00068C0F3810002280AD12E
:100DA000201D0068400206D52068800336D568689B
:100DB0000028E2D032E06868B0F5803F10D0B0F58E
:100DC000A02F206810D020F480302060206820F40C
:100DD000802020606868A0B1FFF73CFB06460CE06D
:100DE000206840F48030F4E740F480202060F7E78A
:100DF000FFF730FB801B642873D820688003F7D589
:100E00000CE0FFF727FB064605E000BFFFF722FBDB
:100E1000801B6428F0D820688003F7D42878DFF896
:100E2000608280074FF000093ED5DBF8001058467D
:100E300011F00C0F09D00068C0F3810002280BD11B
:100E40008D48001F0068400206D42068800715D531
:100E5000E868012809D111E0E868B8B10120C8F8B4
:100E60000000FFF7F7FA064605E002E1FFF7F2FAA5
:100E7000801B0228C0D820688007F7D52068296920
:100E800020F0F80040EAC10020600DE0C8F80090B2
:100E9000FFF7E0FA064604E0FFF7DCFA801B0228C1
:100EA0001FD820688007F7D42878000722D5724E13
:100EB000744869696C3671B101210160FFF7CAFAA3
:100EC000074604E0FFF7C6FAC01B022809D83068BD
:100ED0008007F7D50EE0C0F80090FFF7BBFA074691
:100EE00005E083E0FFF7B6FAC01B02287ED8306821
:100EF0008007F7D42878400768D5DFF87CA1002761
:100F00000AF1380ADAF80000C0000BD4DAF8001051
:100F100041F08051CAF80010DAF80000012700F013
:100F200080500090584E3068C00510D4306840F4AE
:100F300080703060FFF78EFA009005E0FFF78AFAC4
:100F40000099401A022851D83068C005F6D54A4E9B
:100F5000A868683601280FD00528306810D020F026
:100F600001003060306820F004003060A868B8B13B
:100F7000FFF770FA00900FE0306840F00100F4E7EE
:100F800040F004003060F7E7FFF764FA0099411A77
:100F900041F28830814264D830688007F4D50EE091
:100FA000FFF758FA009007E0FFF754FA0099411A4A
:100FB00041F28830814254D830688007F4D42FB190
:100FC000DAF8001021F08051CAF80010A869C0B307
:100FD000DBF80010C1F3810102294AD002284846FB
:100FE00007D0C8F86000FFF735FA00E039E00546A1
:100FF0003AE04746C8F86000FFF72CFA064604E0DE
:10100000FFF728FA801B02282BD820688001F7D42C
:10101000D5E907010843A96A1C4A490802EB0141C6
:101020006A6A41EA8211084395F82C1040EA01618E
:101030001148001F016001203866FFF70BFA0546D2
:1010400005E014E0FFF706FA401B022809D82068E3
:101050008001F7D50BE000BFFFF7FCF9401B022829
:1010600002D90320BDE8F88F20688001F4D4002065
:10107000F8E70120F6E70000083802400038024097
:1010800000004742800E4742007000400000FFFF12
:1010900070B5040005D00025A56294F8510010B188
:1010A00006E0012070BD84F85050204600F030F872
:1010B000022084F851002068016821F0400101609D
:1010C000D4E901010843D4E90312114308436169DB
:1010D0000843218B01F400710843E1690843216A48
:1010E0000843A16A084321680860A069042101EA55
:1010F0001040616A0843216848602068C16921F492
:101100000061C1616565012084F85100002070BD57
:1011100000B500680E4987B0884216D10D480021FD
:10112000026842F480520260006800F4805005902A
:10113000E02000900220CDE901010320039005206A
:10114000049069460448FFF7B7F807B000BD0000F7
:101150000030014044380240000002402DE9F84FC1
:10116000044640680026984617460D464FF004098D
:10117000B0F5827F01D1A06890B194F850000128A9
:1011800019D04FF0010B84F850B0FFF763F90090CD
:1011900094F851004FF0000A01280ED002267FE09B
:1011A00084F8519013460A462046CDF8008000F09E
:1011B00031F9BDE8F88F0220FBE7002D6FD0002F3A
:1011C0006DD084F85190C4F854A0A563A787E78731
:1011D000C4F830A0A4F834A0A4F836A0C4F840A005
:1011E000C4F844A0A0684FF40047B84204D1206876
:1011F000016821F48041016020680168490603D438
:10120000016841F040010160E068B8B133E0206856
:101210008168C90706D0007B05F8010BE08F401EEE
:10122000E0870BE0B8F1000F23D0B8F1FF3F05D005
:10123000FFF710F90099411A41451AD2E08F0028B2
:10124000E5D11BE020688168C90706D0C06825F891
:10125000020BE08F401EE0870DE0B8F1000F08D0D0
:10126000B8F1FF3F07D0FFF7F5F80099411A414563
:1012700001D3032614E0E08F0028E3D16068B0F5C5
:10128000827F0AD1A068B84202D0B0F5806F04D145
:101290002068016821F040010160606D00B1012605
:1012A00084F851B084F850A0304682E72DE9F84F19
:1012B000044690F850000026994617460D4601282E
:1012C0000DD04FF0010B84F850B0FFF7C3F8804603
:1012D00094F85100B246012804D0022694E002207E
:1012E000BDE8F88F002D7BD0002F79D0032084F843
:1012F0005100C4F854A02563A786E786C4F838A037
:10130000A4F83CA0A4F83EA0C4F844A0C4F840A0AF
:10131000A068B0F5004F04D12068016841F4804115
:10132000016020680168490603D4016841F040016A
:101330000160E068B0F5006F606804D030B3E08E03
:10134000012823D03EE010B1E08E01281AD135F8F3
:10135000021B206805E020688168890706D535F8FA
:10136000021BC160E08E401EE0860BE0B9F1000F69
:1013700034D0B9F1FF3F05D0FFF76CF8A0EB0801BE
:1013800049452BD2E08E0028E5D11EE0216815F8F2
:10139000010B087306E020688168890706D515F8F7
:1013A000011B0173E08E401EE0860BE0B9F1000FD7
:1013B00014D0B9F1FF3F05D0FFF74CF8A0EB0801BE
:1013C00049450BD2E08E0028E5D14B46012202218F
:1013D0002046CDF8008000F00AFE10B1032613E08D
:1013E00011E042464946204600F0F1FD18B10126C1
:1013F0002020606508E0A06818B92068C16880688E
:101400000090606D00B1012684F851B084F850A0BE
:10141000304665E72DE9F84F044690F85000002665
:101420000A9F9A4693460D464FF0010801280ED0B8
:10143000012084F85000FFF70DF8814694F8510020
:10144000616801280CD0B1F5827F07D102E002204B
:10145000BDE8F88FA16809B9042801D00226BDE0D3
:1014600055B1BBF1000F07D0BAF1000F04D094F8CA
:101470005100012802D004E00126AFE0052084F8E5
:10148000510000206065C4F838B0A4F83EA0A4F86C
:101490003CA02563A4F836A0A4F834A020646064BE
:1014A00020680168490603D4016841F040010160E9
:1014B000E068B0F5006F606804D0E8B3E08E012802
:1014C0003BD06AE010B1E08E01282ED1216835F8BA
:1014D000020BC860E08E401EE08626E0B8F1000FE7
:1014E0000DD0E08E58B120688168890707D535F89E
:1014F000021BC160E08E401EE0864FF00008E08FC6
:1015000058B120688168C90707D0C0682BF8020B62
:10151000E08F401EE0874FF00108781C05D0FEF7F1
:1015200099FFA0EB0900B84246D2E08E0028D5D141
:10153000E08F0028D2D136E0FFE7216815F8010BD3
:101540000873E08E401EE08627E000BFB8F1000F70
:101550000DD0E08E58B120688168890707D515F84D
:10156000011B0173E08E401EE0864FF00008E08F03
:1015700058B120688168C90707D0C0680BF8010B13
:10158000E08F401EE0874FF00108781C05D0FEF781
:1015900061FFA0EB0900B8420ED2E08E0028D5D141
:1015A000E08F0028D2D13B46012202212046CDF80F
:1015B000009000F01CFD08B103260FE04A463946B2
:1015C000204600F004FD18B101262020606505E0EA
:1015D000A06818B92068C16880680090012084F86C
:1015E0005100002084F85000304631E74FF0E021F0
:1015F0000428086903D020F004000861704740F017
:101600000400FAE7704710B5401EB0F1807F01D3A7
:10161000012010BD4FF0E02460610F21601700F041
:10162000C5FC0020A06107202061002010BD10B57E
:10163000FFF7E8FF10BD10B590F83820012A25D03B
:10164000012280F83820CA688C6822F44072224354
:101650004C6822F4806222430C6822F40062224328
:101660000C6922F4805222434C6922F40052224336
:101670008C6922F48042224322F400410268002354
:101680002143516480F83830002010BD022010BD85
:1016900030B590F83820012A20D0012280F8382077
:1016A000022380F8393003685C6824F070045C60C1
:1016B00003685C680D682C435C6003689C6824F0D8
:1016C00080049C6003689C6849680C439C6080F8B7
:1016D0003920002180F83810084630BD022030BD86
:1016E00010B5040003D094F8390010B107E00120D0
:1016F00010BD002084F83800204600F00DF80220CC
:1017000084F83900211D206800F03CFD012084F898
:101710003900002010BD000008B500680C4988425F
:1017200008D10C48016841F001010160006800F037
:1017300001000BE00849884209D10648001F0168F2
:1017400041F004010160006800F00400009008BD51
:1017500000000140443802400008004070B50446D3
:1017600090F83800012817D0012584F8385002205D
:1017700084F839002068826822F0770222F47F42E0
:1017800082600868502837D00DDC202859D005DC4D
:1017900088B3102841D151E0022070BD302853D0C9
:1017A00040283AD13FE060282ED070280BD0B0F509
:1017B000805F03D0B0F5005F2FD110E02068816812
:1017C00021F0070115E0CB68D1E90121206800F084
:1017D0002CFD2168886840F0770088601DE0CB68A8
:1017E000D1E90121206800F020FD2068816841F4E2
:1017F0008041816011E01EE0CA684968206800F0FD
:10180000C9FD5021206806E0CA684968206800F0D8
:10181000D2FD6021206800F012FD84F839500020CC
:1018200084F8380070BDCA684968206800F0B2FDCD
:1018300040212068EFE700212068ECE710212068B4
:10184000E9E720212068E6E730212068E3E700008F
:1018500000B5104B02680021022085B09A4209D1E0
:1018600002020092CDE901010120CDE90310694691
:1018700009480AE0094B9A4209D192140092CDE935
:101880000101CDE9031069460548FEF715FD05B0D5
:1018900000BD0000000001400010024000080040B0
:1018A000000C024070B5044690F838000D4601283F
:1018B0000DD0012684F83860022084F8390042B146
:1018C000042A18D0082A2AD00C2A4DD139E0022047
:1018D00070BD206800F0BCFC2068816941F00801FF
:1018E00081612068816921F004018161206881693A
:1018F0002A69114311E0206800F0D2FC2068816958
:1019000041F4006181612068816921F48061816115
:10191000206881692A6941EA0221816124E0206806
:1019200000F0EAFC2068C16941F00801C16120684B
:10193000C16921F00401C1612068C1692A691143AC
:1019400011E0206800F004FD2068C16941F40061E5
:10195000C1612068C16921F48061C1612068C169E9
:101960002A6941EA0221C16184F83960002084F8C3
:10197000380070BD10B5040003D094F8390010B1E0
:1019800007E0012010BD002084F83800204600F058
:101990000CF8022084F83900211D206800F0F2FBC9
:1019A000012084F83900002010BD704710B50446AE
:1019B0000068012200F02EFC07492068884203D10C
:1019C000416C41F4004141642068016841F001012B
:1019D0000160002010BD00000000014001684A695C
:1019E000D24352050CD46FF480624A610421016431
:1019F000002140F8301F20224273017301207047FC
:101A0000002070472DE9F84F0446006889460B9D79
:101A100001689846174641F48061016020680168BA
:101A200041F48071016000954FF0011A0022514687
:101A300020460A9B00F0D5F8F0BB216809F0FE00B3
:101A400008610AF1010B2B46594620460A9A00F01C
:101A5000F9F818B1206C042812D03AE020684169E6
:101A6000806900902A4620460A9900F060F950B13A
:101A7000206C04282DD12068016841F400710160B8
:101A80000120BDE8F88FFEB2B8F1010F09D021683E
:101A9000380A08612A4620460A9900F048F90028C9
:101AA000E6D1206806612A4620460A9900F03FF9EF
:101AB0000028DDD1206800E00BE0016841F480716E
:101AC000016000950022514620460A9B00F089F8EB
:101AD00008B10320D5E7216809F0FF0040F00100BC
:101AE00008612B46594620460A9A00F0ABF80028B8
:101AF000B0D1C6E72DE9F843044600680D46DDE99C
:101B0000089701689846164641F4807101604B467B
:101B100000224FF001112046009700F062F8E8B96A
:101B2000216805F0FE0008613B464A4618492046F8
:101B300000F088F828B1206C04280FD10120BDE8FE
:101B4000F88320684169806900903A4649462046FA
:101B500000F0EDF820B1206C042813D00320EEE74C
:101B6000F5B2B8F1010F09D02168300A08613A4690
:101B70004946204600F0DBF80028ECD120680561DA
:101B80000020DCE72068016841F400710160D5E7BE
:101B90000200010070B516460D4604461AE02046C4
:101BA000FFF71CFF08B1012070BD681C12D025B1E1
:101BB000FEF750FC801BA8420CD954F8400F40F0AF
:101BC000200044F810090020206020216173207358
:101BD000032070BD20684069C0434007DFD4002067
:101BE00070BD2DE9F0471E4690460D460446C1F3F0
:101BF0000747DDF8209012E0701C10D02EB1FEF7E0
:101C000029FCA0EB0900B04209D9002044F8300FAC
:101C100020216173A07320730320BDE8F087206842
:101C2000012F0AD0806925EA00000004000C06D0CC
:101C300000214145E0D00020EFE74069F3E70121B2
:101C4000F7E700002DE9F0479A4691460D46044615
:101C500000264FF02008C1F307472AE020684069BA
:101C6000C043400512D42068016841F4007101604E
:101C700021686FF48060486104202064266384F842
:101C80003D8084F83C600120BDE8F087B9F1FF3F5A
:101C90000FD0B9F1000F05D0FEF7DCFBA0EB0A0175
:101CA000494506D944F8306F84F80D802673032027
:101CB000EAE72068012F07D0D0F8180025EA0000D5
:101CC0000004000CE0D0C9E74069F7E72DE9F041D6
:101CD000002590460E460446202721E04069C04377
:101CE000C0060CD421686FF010004861256425639C
:101CF00084F83D7084F83C500120BDE8F0812EB19D
:101D0000FEF7A8FBA0EB0800B04209D954F8400F39
:101D100040F0200044F80409677025700320ECE7C8
:101D200020684169C9434906D8D40020E5E770B569
:101D300016460D4604461AE02046FFF74FFE08B14E
:101D4000012070BD681C12D025B1FEF783FB801BFB
:101D5000A8420CD954F8400F40F0200044F8100974
:101D600000202060202161732073032070BD206853
:101D70004069C0430006DFD4002070BD2DE9F0416A
:101D8000234886B00024016841F010010160016819
:101D900001F010010591016841F001010160016845
:101DA00001F001010591016841F00801016001683D
:101DB00001F008010591016841F00201016000682D
:101DC000144F00F002000590012208213846FEF76A
:101DD0003BFBDFF844804FF4145600223146404666
:101DE000FEF732FB082000900125CDE90154694639
:101DF00038460394FEF760FA0096CDE9015469462F
:101E000040460394FEF758FA06B0BDE8F0810000A2
:101E10003038024000100240000C02400B4810B560
:101E2000094901600A49416000214FF48042816004
:101E3000C0E9031241618161C1610162FEF710FBDB
:101E4000002800D0FEE710BD005400402000002014
:101E5000A08601000E4810B50C4901604FF4827154
:101E6000416000218160C1604FF400720161C0E9EE
:101E700005121022C0E90721416281620A21C16274
:101E8000FFF706F9002800D0FEE710BD0030014042
:101E90007400002010B5264894B024490160102138
:101EA0000024C0E901144FF47A71C0E903144461BD
:101EB000FFF716FC00B1FEE74FF480500E900EA91C
:101EC0001B48FFF74BFC00B1FEE71948FFF752FD36
:101ED00000B1FEE7129412A915481394FFF7D8FB3E
:101EE00000B1FEE76020CDE900040294039404945D
:101EF0000594002269460E480694FFF7D3FC00B112
:101F0000FEE70794089409944FF400500A94CDE931
:101F10000B4007A906480D94FFF78DFB00B1FEE7C3
:101F20000348FFF795FC14B010BD0000000001400D
:101F3000CC00002010B51C488EB01A490160102159
:101F40000024C0E901144FF47A71C0E90314FFF7CB
:101F5000C7FB00B1FEE74FF48050079007A9124875
:101F6000FFF7FCFB00B1FEE70F48FFF703FD00B1F0
:101F7000FEE70B940BA90C480C94FFF789FB00B10A
:101F8000FEE76020CDE9000402940022694606487D
:101F90000494FFF787FC00B1FEE70348FFF758FC05
:101FA0000EB010BD00080040080100200907090E0E
:101FB000002806DA00F00F0000F1E02080F8141D80
:101FC000704700F1E02080F800147047704738B582
:101FD0000B46009204460022802100F008F80028F9
:101FE00004D0606D40F020006065032038BD2DE90D
:101FF000F0411D4617460E460446DDF8188035E0D0
:10200000681C33D02DB1FEF725FAA0EB0800A842DA
:102010002CD32068416821F0E00141606068B0F590
:10202000827F0BD1A068B0F5004F02D0B0F5806F71
:1020300004D12068016821F040010160A06AB0F578
:10204000005F0AD1206801684DF6FF7211400160FF
:102050002068016841F400510160012084F85100BA
:10206000002084F850000320BDE8F08120688068DB
:1020700036EA000004D00020B842C1D10020F3E7C6
:102080000120F9E7704710B5FEF7E0FCBDE810400D
:10209000FFF7CDBA244810B5026892B0002142F093
:1020A00080520260006800F0805011901F48026862
:1020B00042F4404202600068022400F44040119063
:1020C0000120039010200490009406940820CDE98C
:1020D0000710CDE90A40402109916846FEF74AFE03
:1020E00000B1FEE70F20CDE90C0490200E904FF4D4
:1020F00080500F90109000210CA8FEF75DFD00B1FC
:10210000FEE7FEF7F1FD4FF47A71B0FBF1F0FFF757
:102110007AFA0420FFF76AFA00221146501EFEF7F1
:1021200019FD12B010BD00004038024000700040A0
:102130001048016841F4700101600F48016841F0E6
:10214000010101600C4A00210832116002680B4B4A
:102150001A400260031D0A4A1A60026822F48022B3
:10216000026005480C300160024958068039086059
:102170007047000088ED00E000380240FFFFF6FEE7
:1021800010300024F0B502681B4B1C4C9F031C4D03
:102190001C4E984207D0B84205D0A04203D0A842B6
:1021A00001D0B04204D122F0700C4A6842EA0C021D
:1021B000984210D0B8420ED0A0420CD0A8420AD00B
:1021C000B04208D0104CA04205D0104CA04202D022
:1021D0000F4CA04203D122F44074CA68224302602B
:1021E0008A68C2620A688262984201D10969016301
:1021F00001214161F0BD00000000014000040040E9
:1022000000080040000C0040004001400044014034
:102210000048014010B50123046A8B409C430462CE
:10222000036A8A401343036210BD10B5846842EA12
:10223000032224F47F440A432243826010BD826853
:1022400022F070020A4342F00701816070470000EB
:1022500030B5026A22F001020262026A43688469B0
:1022600024F073050C682C4322F002058A682A4387
:102270000A4DA8420BD122F00805CA6823F4407326
:102280002A434D6922F004021D438B692B434360AE
:10229000846149684163026230BD00000000014072
:1022A00030B5026A22F010020262026A4368846951
:1022B0000D6824F4E64444EA05248D6822F02002E7
:1022C00042EA05120B4DA8420ED1CD6822F08002E1
:1022D00042EA05124D6923F4406343EA85038D69A0
:1022E00022F0400243EA85034360846149688163C8
:1022F000026230BD0000014030B5026A22F48072F3
:102300000262036A4268C46923F4007324F073050F
:102310000C682C438D6843EA05230C4DA8420ED16E
:10232000CD6823F4006343EA05234D6922F440524B
:1023300042EA05128D6923F4806342EA0512426085
:10234000C4614968C163036230BD00000000014000
:1023500030B5026A22F480520262046A4268C3699C
:102360000D6823F4E64343EA05238D6824F4005402
:1023700044EA0534064DA84204D14D6922F4804256
:1023800042EA85124260C36149680164046230BD5B
:102390000000014010B5036A046A24F001040462DD
:1023A000846924F0F00444EA021423F00A020A4388
:1023B0008461026210BD10B5036A23F0100303624A
:1023C0008369046A23F4704343EA023224F0A003D1
:1023D00043EA01118261016210BD02E008C8121FC8
:1023E00008C1002AFAD170477047002001E001C1FE
:1023F000121F002AFBD170470EB57649744E002299
:10240000B0150E60888074488A60C1E903200125F8
:102410008D7101F11400A902066081806F4982600C
:10242000C0E903218571FEF719FBFFF733FEFFF7C3
:10243000A5FCFFF72FFDFFF77DFDFFF70BFDFFF775
:10244000EDFC644800217838FFF7B0FA61480021BC
:102450003C38FFF7ABFA4FF47A70FDF71BFF4FF4EF
:1024600096715C4800F0CBF801215A4800F0BEF8A4
:1024700058484FF4FA71143000F0C1F85548002163
:10248000143000F0B3F8564C2020611E20700F204D
:1024900060702E200870534F002208213846FDF747
:1024A000D3FF4C48322302222146D038FEF7FEFEED
:1024B000012208213846FDF7C7FF002208213846CF
:1024C000FDF7C2FFA020207042483223012221469E
:1024D000D038FEF7EBFE3F4832230122A11CD03852
:1024E000FEF73CFE012208213846FDF7ADFF0A2326
:1024F000012233213C48FEF737F818B9690330460A
:10250000FDF79EFF36482B21001D142601708DE833
:1025100061000123202233213348FEF7D3F9322012
:10252000FDF7B8FE2E480123801D8DE861002022B2
:1025300032212D48FEF7C8F8294DA9260835AB27CA
:102540004FF0AD0800F06AF82748267032230122C8
:1025500023495430FEF7AAFE2149234832230122A1
:1025600008315430FEF7FAFD00F050F83220FDF744
:1025700091FE00F053F81C482770322301221849BD
:102580005430FEF793FE184832230122A91C543020
:10259000FEF7E4FD00F03AF83220FDF77BFE00F094
:1025A0003DF8114884F80080322301220C49543050
:1025B000FEF77CFE0C4832230122291D5430FEF721
:1025C000CDFD00F023F83220FDF764FEBAE70000ED
:1025D000000C0240440100200000014000080040BF
:1025E000010000200010024020000020012900D03E
:1025F00001B98171827981880068FDF725BF026980
:10260000D162006949084163704700000122082136
:102610000148FDF719BF0000001002400022082108
:102620000148FDF711BF000000100240000000004B
:102630000000000001020304060708090000000072
:1026400001020304642600080000002020000000AE
:10265000DA2300088426000820000020500500002E
:10266000EA23000800000000000000000000000055
:102670000000000001000000100000000000000049
:042680000024F4003E
:040000050800019955
:00000001FF
