:020000040800F2
:1000000098050020AD010008B5010008B7010008FF
:10001000B9010008BB010008BD0100080000000094
:100020000000000000000000000000000D25000896
:10003000C101000800000000552400080F25000839
:10004000C7010008C7010008C7010008C701000870
:10005000C7010008C7010008C7010008C701000860
:10006000C7010008C7010008C7010008C701000850
:10007000C7010008C7010008C7010008C701000840
:10008000C7010008C7010008C70100080000000000
:10009000000000000000000000000000C701000890
:1000A000C7010008C7010008C7010008C701000810
:1000B000C7010008C7010008C7010008C701000800
:1000C000C7010008C7010008C7010008C7010008F0
:1000D000C7010008C7010008C701000800000000B0
:1000E000C7010008C7010008C701000800000000A0
:1000F000000000000000000000000000C701000830
:1001000000000000C7010008C7010008C70100087F
:1001100000000000000000000000000000000000DF
:10012000C7010008C7010008C7010008C70100088F
:10013000C7010008000000000000000000000000EF
:10014000000000000000000000000000C7010008DF
:10015000C7010008C7010008C7010008C70100085F
:10016000C7010008C70100080000000000000000EF
:10017000000000000000000000000000000000007F
:1001800000000000C701000800000000000000009F
:10019000C7010008C7010008DFF80CD000F0C6FA5C
:1001A00000480047DD2900089805002006488047E0
:1001B00006480047FEE7FEE7FEE7FEE7FEE7FEE74C
:1001C000FEE7FEE7FEE7FEE7B92500089901000813
:1001D0002DE9F05F0546002092469B46884606467C
:1001E000814640241BE0284641464746224600F00F
:1001F000E6F953465A46C01A914110D311461846A3
:10020000224600F0CDF92D1A67EB01084F46224631
:100210000120002100F0C4F917EB00094E41201E17
:10022000A4F10104DFDC484631462A464346BDE8D6
:10023000F09F2DE9FE4F804681EA0300C00F0C4677
:10024000009021F0004123F00045B8EB0200A941E5
:1002500005D24046214690461C460B46024623F0F6
:100260000040104347D0270DC7F30A00C3F30A51DB
:100270000290401A019040286BDAC3F3130040F457
:10028000801B0098924620B10023D2EB030A63EB57
:100290000B0B01985946C0F14002504600F080F91E
:1002A00006460D4650465946019A00F098F910EB63
:1002B00008006141002487EA115284EAE7731A4377
:1002C00040D0009A62B3019A012A4FEA075215DC26
:1002D000001B61EB02014FF0004202EA0752CDE938
:1002E0000042001C41F5801132462B4600F0CFF948
:1002F00003B0BDE8F08F40462146F9E7001B61EBF3
:100300000201001C41F5801300185B412018A2F582
:10031000001747EB030140EAD570B6196D4111E0B3
:100320006D084FEA360645EAC0754FEA0752001BD2
:1003300061EB0201001C41F5801149084FEA3000D1
:100340000019514132462B4603B0BDE8F04F00F092
:100350008FB90098012240000023D0EB020263EB2A
:10036000E073009821464FEAE074B8EB000061EBBF
:100370000401E9E783F000435BE781F0004158E7BF
:100380002DE9FE4F81EA030404F0004421F000410E
:1003900000944FF0000B23F0004350EA01045ED0BC
:1003A00052EA03045BD0C3F30A54C1F30A552C4448
:1003B000A4F2F3340194A0FB0254C1F3130141F4FD
:1003C0008011C3F3130343F4801301FB024400FBC9
:1003D000034E840A970A44EA815447EA8357A4FBF0
:1003E000076802958D0A05FB07854FEA932C04FBED
:1003F0000C542705029D4FEA065847EA1637B5EB1D
:1004000008056EEB070C870E920E47EA811742EA49
:100410008312A7FB0201B6EB0B0164EB00042B0D6A
:1004200043EA0C335E1844EB1C50DA465146E7FBB6
:100430000201C5F313044FEA0B3343EA14534FEAA6
:100440000432019C43EA0603A4F10C040294009CCC
:10045000CDE900B400F01BF903B0BDE8F08F002037
:100460000146F9E72DE9F04D81EA030404F0004B61
:1004700021F0004514464FF0000A23F0004150EAF5
:10048000050220D054EA01021DD0C5F30A570246E6
:10049000C5F31303C1F31300C1F30A5640F48015EA
:1004A00043F48013A7EB0608101BD64608F2FD386C
:1004B00073EB050002D308F1010801E092185B41DB
:1004C000B8F1000F03DA00200146BDE8F08D0020EE
:1004D0004FF48011064684460EE0171B73EB0507A8
:1004E00005D3121B63EB050306434CEA010C4908D4
:1004F0004FEA300092185B4150EA0107EDD152EA11
:10050000030012D082EA040083EA0501084305D003
:10051000101BAB4106D20122002306E000224FF05F
:10052000004302E06FF0010253101AEB06004CEB9F
:10053000085110EB0A0041EB0B01BDE8F04D00F053
:1005400097B800F0004230F000400AD0C10D01F52C
:100550006071C0F3160042EA0151C208400711431E
:10056000704700200146704701F0004330B421F08D
:10057000004150EA010206D00A0DA2F56072C1F3F3
:100580001301002A02DC30BC00207047440F44EA0B
:10059000C104C100E01830BC00EBC25000F031B81B
:1005A000202A04DB203A00FA02F100207047914033
:1005B000C2F1200320FA03F3194390407047202A28
:1005C00004DB203A21FA02F00021704721FA02F3FD
:1005D000D040C2F120029140084319467047202ABA
:1005E00006DBCB17203A41FA02F043EAE07306E05B
:1005F00041FA02F3D040C2F120029140084319466B
:1006000070470029A8BF7047401C490008BF20F070
:100610000100704710B4B0FA80FC00FA0CF050EA08
:10062000010404BF10BC704749B1CCF1200421FA89
:1006300004F411FA0CF118BF012121430843A3EB84
:100640000C01CB1D4FEA00614FEA102042BF002091
:1006500010BC704700EBC35010440029A4BF10BC6D
:100660007047401C490008BF20F0010010BC7047D3
:1006700010B5141E73F1000408DA401C41F10001AA
:1006800092185B411A4301D120F0010010BD2DE901
:10069000F04D92469B4611B1B1FA81F202E0B0FAF8
:1006A00080F220329046FFF77BFF04460F4640EA77
:1006B0000A0041EA0B0153465A46084313D011463B
:1006C00053EA010019D0C8F140025046FFF777FF06
:1006D00005460E46504659464246FFF761FF08431D
:1006E00005D0012004E020463946BDE8F08D002009
:1006F000054346EAE0762C4337430A986305E40A4B
:10070000A0EB08000022FD0A44EA47540A3002D553
:1007100000200146E9E7010510196941DDE90845B6
:1007200000196941BDE8F04DA2E70000064C074DF5
:1007300006E0E06840F0010394E8070098471034B1
:10074000AC42F6D3FFF72CFD3C2C00085C2C0008D3
:1007500070B5044600F0DCF80546601C02D0044881
:100760000078044400F0D4F8401BA042FAD370BDD6
:10077000140000202DE9F84FDFF860B100224FF09F
:1007800001084FF0030A4FF00F090BF1040E00BFF0
:100790000B6808FA02F42340A3426ED14D68022D83
:1007A00001D0122D0ED1D50800EB850CDCF82050BD
:1007B0005607F70E09FA07F6B5430E69BE402E43F9
:1007C000CCF82060066855000F790AFA05FC07F09E
:1007D000030726EA0C06AF40374307604E68012E38
:1007E00005D0022E03D0112E01D0122E0ED1866814
:1007F000CF6826EA0C06AF40374387604668A643B9
:100800000C79C4F30014944034434460C6688C6887
:1008100026EA0C06AC403443C4604C68E40056D56C
:100820002F4C256845F480452560246822F0030597
:1008300004F4804400942B4C2E19D6F808489507F0
:100840002F0F09FA07F5AC43274DA84201D1002527
:1008500015E0264DA84201D1012510E0244DA84203
:1008600001D102250BE0234DA84201D1032506E06A
:10087000214DA84202D1042501E028E00725BD4012
:100880002543C6F80858DBF800405D464E689C4397
:10089000F60300D51C432C60DEF8004075464E6818
:1008A0009C43B60300D51C432C600C4D08352C68C6
:1008B0004E689C43F60200D51C432C60074D0C3556
:1008C0002C684E689C43B60200D51C432C60521C19
:1008D000102AFFF45DAFBDE8F88F0000003C014036
:1008E0004438024000300140000002400004024051
:1008F00000080240000C02400010024042694A40D9
:10090000426170470AB1816170470904FBE700004A
:1009100001488068704700001400002070B5040092
:1009200004D094F83D00002510B106E0012070BD10
:1009300084F83C50204600F0B5FA242084F83D00AD
:100940002068016821F00101016000F025FC3349B5
:100950002268B0FBF1F15160314A6368934206D9D5
:100960004FF4967359434FF47A73B1FBF3F1236854
:10097000491C1962616891420BD84900B0FBF1F241
:10098000C2F30B02042A01D2042019E0B0FBF1F0FB
:1009900016E0A3689BB301EBC10202EB0112B0FBAE
:1009A000F2F242F48042120530D04BB301EBC102A7
:1009B00002EB0111B0FBF1F040F4804040F4004044
:1009C0002168C861D4E90701084321680860D4E9B7
:1009D0000310084321688860D4E9050108432168B1
:1009E000C8602068016841F0010101602564202091
:1009F00084F83D00256384F83E50002070BD00E07F
:100A000006E001EB4102B0FBF2F2CCE70120D7E7B0
:100A100001EB4101B0FBF1F0D0E7000040420F00D4
:100A2000A08601002DE9FF4F81B099468B46044610
:100A30004FF00108FFF76CFF054694F83D002028B1
:100A40007BD1192301224D492046009501F00DFB71
:100A5000002872D194F83C0001286ED0012084F85F
:100A60003C0020680168C90703D1016841F0010119
:100A700001602068016821F400610160242084F88D
:100A80003D00002626643E48E06220272068016879
:100A900041F4807101604B4600224FF00111204665
:100AA000009501F0E2FA002858D121680BF0FE0011
:100AB0000861FFF72DFF2168054648694969C0F3C1
:100AC000400094F83D20C1F380214FF0A00A12E0CD
:100AD000B9F1000F04D0FFF71BFF411B494501D9B5
:100AE00084F83DA0216848694969C0F3400094F842
:100AF0003D20C1F38021084301D1A02AE8D184F828
:100B00003D7020684169C943890717D4016841F4E1
:100B10000071016020684169806919230122174929
:100B20002046009501F0A1FAC0B984F83D7084F820
:100B30003C60002005B0BDE8F08F1DE0016841F485
:100B40000071016021686FF48060486119230122FF
:100B50000A492046009501F088FA08B10320E9E728
:100B60004146039808F1010881428FD384F83D7013
:100B700084F83C600120DDE70220DBE70200100082
:100B80000000FFFF2DE9F84F1F4690468A460446B5
:100B9000DDF82890FFF7BCFE054694F83D002028BC
:100BA0006FD1192301226E492046009501F05DFAAC
:100BB0000028F5D194F83C00012862D0012084F887
:100BC0003C0020680168C90703D1016841F00101B8
:100BD00001602068016821F400610160222084F82E
:100BE0003D00102084F83E0000262664C4F82480CE
:100BF00067855C48E062608D20852B464A465146F9
:100C0000204601F051F928B1206C84F83C6004289A
:100C100041D04DE0208D544F68B1012814D00228F6
:100C20002068016816D041F4806101602068416944
:100C30008069009085E020684169816900910168C0
:100C400041F4007101607CE02068016821F480615A
:100C50000160F0E721F4806101602068016841F4DF
:100C60000061E2E7032849D801280BD0022817D0F9
:100C70004B46002239462046009501F0F6F9B8B9F6
:100C80002AE06AE02A464946204601F063FA28B184
:100C9000206C20280CD00120BDE8F88F206845E0AA
:100CA0004B46002239462046009501F0DEF908B196
:100CB0000320F1E72068016841F4007101602068B9
:100CC0000169606A421C62620170208D401E2085AD
:100CD000608D401E6085E1E72068016821F4806135
:100CE000016020680169606A421C62620170208DA7
:100CF000401E2085608D401E6085D1E72A4649460A
:100D0000204601F027FA0028C2D120680269606AF3
:100D1000411C61620270208D401E2085608D401E46
:100D2000608520684169C94349070AD40169606A3E
:100D3000421C62620170208D401E2085608D401E25
:100D40006085208D00288DD1202084F83D0084F816
:100D50003E6084F83C6000209EE702209CE7000093
:100D6000020010000000FFFF040001002DE9F84F11
:100D70001F4690468A460446DDF82890FFF7C8FDD6
:100D8000064694F83D0020287ED1192301224349CC
:100D90002046009601F069F900287DD194F83C00C6
:100DA000012879D0012084F83C0020680168C90737
:100DB00003D1016841F0010101602068016821F45C
:100DC00000610160212084F83D00102084F83E007D
:100DD00000252564C4F8248067853148E062608D71
:100DE000208533464A465146204601F0CDF828B1C9
:100DF000206C84F83C5004284CD00DE020684169F8
:100E00008069009030E032464946204601F0D3F92F
:100E100028B1206C042838D00320BDE8F88F606A20
:100E2000411C6162216800780861608D401E608508
:100E3000208D401E80B2208521684A69D243520726
:100E40000BD450B1606A421C626200780861608D08
:100E5000401E6085208D401E208532464946204632
:100E600001F0DCF80028D4D1208D0028CBD154F833
:100E70003D0B016841F400710160202004F81E0957
:100E8000E57765770020C8E706E02068016841F44F
:100E9000007101600120C0E70220BEE702001000DF
:100EA0000000FFFF00B500680E4987B0884217D1E7
:100EB0004FF4107000901220019001200290032046
:100EC00003900420049069460748FFF753FC074845
:100ED000016841F400110160006800F40010059001
:100EE00007B000BD005400400004024040380240FA
:100EF0000248816802781144816070471400002024
:100F00000B4810B5016841F400710160016841F4BB
:100F100080610160016841F480710160032000F08C
:100F20008BF8002000F006F800F024F8002010BD37
:100F3000003C024070B50D4D04464FF47A7128789C
:100F4000B1FBF0F00A490968B1FBF0F000F0ADFD2B
:100F500048B9102C07D200222146501E00F04CF850
:100F600000206C6070BD012070BD000014000020E6
:100F7000200000201F4808B5016841F4804101604D
:100F8000006800F4804000901A48001F016841F09A
:100F900080510160006800F080500090072000F050
:100FA0004BF8002211466FF00B0000F025F80022EC
:100FB00011466FF00A0000F01FF8002211466FF092
:100FC000090000F019F800221146501F00F014F833
:100FD00000221146101F00F00FF800221146901E4B
:100FE00000F00AF80022BDE808401146501E00F04B
:100FF00003B8000044380240F0B40E4B1B680C46A6
:10100000C3F30223C3F10705042D00D90425191DDC
:10101000072901D2002300E0DB1E012606FA05F1B4
:10102000491E214099409E40761E16403143F0BC37
:1010300001F000BA0CED00E0064900F00702086874
:101040004FF6FF03184040EA0220034A10430860AD
:10105000704700000CED00E00000FA052DE9F047B4
:101060000E46050065D0DFF81481D8F80000F7B20D
:1010700000F00F00B04207D288F80070D8F80000E6
:1010800000F00F00B04254D128683D4C810712D5C2
:10109000400703D5206840F4E0502060287800071E
:1010A00003D5206840F4604020602068A96820F0E3
:1010B000F000084320602878C0072DD030496868C8
:1010C0000839012812D0022813D0032811D009684A
:1010D000890700292DDA216821F0030101432160ED
:1010E000FFF716FC814641F2883A0EE00968890351
:1010F000EFE709688901ECE7FFF70AFCA0EB0901BB
:10110000514502D90320BDE8F0872068696800F0E6
:101110000C00B0EB810FEFD1D8F80010404601F081
:101120000F01B14207D90770006800F00F00B0420C
:1011300001D00120E7E72878400705D52068E96855
:1011400020F4E050084320602878000706D5206886
:10115000296920F4604040EAC100206000F02CF8CA
:101160002168084AC1F30311515CC8400649086070
:101170000020FFF7DFFE0020C5E70000003C024032
:1011800008380240242C0008200000200148006894
:1011900070470000200000200448054900680968E5
:1011A000044AC1F38221515CC840704720000020EE
:1011B00008380240342C0008154810B5006810F0BB
:1011C0000C02144813D04110042A0FD0082A0ED163
:1011D0000F4C241F2268236802F03F025B0207D5F0
:1011E0002068C0F38810A0FB010106E0084610BD8E
:1011F0002168C1F38811A1FB00010023FEF7E8FF7D
:101200002168C1F30141491C4900B0FBF1F010BD58
:10121000083802400024F4002DE9F84F050076D08C
:101220002878DFF8F8B2BE4CC00749D0DBF80010D0
:101230005846C1F38101012908D00068C0F381003C
:1012400002280AD1201D0068400206D520688003CC
:1012500036D568680028E2D032E06868B0F5803F93
:1012600010D0B0F5A02F206810D020F4803020607E
:10127000206820F4802020606868A0B1FFF748FB58
:1012800006460CE0206840F48030F4E740F480200B
:101290002060F7E7FFF73CFB801B642873D82068C9
:1012A0008003F7D50CE0FFF733FB064605E000BFEF
:1012B000FFF72EFB801B6428F0D820688003F7D44A
:1012C0002878DFF8608280074FF000093ED5DBF810
:1012D0000010584611F00C0F09D00068C0F38100CF
:1012E00002280BD18D48001F0068400206D42068F8
:1012F000800715D5E868012809D111E0E868B8B180
:101300000120C8F80000FFF703FB064605E002E1F4
:10131000FFF7FEFA801B0228C0D820688007F7D5A7
:101320002068296920F0F80040EAC10020600DE043
:10133000C8F80090FFF7ECFA064604E0FFF7E8FA79
:10134000801B02281FD820688007F7D42878000760
:1013500022D5724E744869696C3671B10121016001
:10136000FFF7D6FA074604E0FFF7D2FAC01B0228BF
:1013700009D830688007F7D50EE0C0F80090FFF775
:10138000C7FA074605E083E0FFF7C2FAC01B022850
:101390007ED830688007F7D42878400768D5DFF812
:1013A0007CA100270AF1380ADAF80000C0000BD44B
:1013B000DAF8001041F08051CAF80010DAF80000A5
:1013C000012700F080500090584E3068C00510D4BE
:1013D000306840F480703060FFF79AFA009005E0C2
:1013E000FFF796FA0099401A022851D83068C005D4
:1013F000F6D54A4EA868683601280FD0052830680F
:1014000010D020F001003060306820F0040030601F
:10141000A868B8B1FFF77CFA00900FE0306840F0A0
:101420000100F4E740F004003060F7E7FFF770FADE
:101430000099411A41F28830814264D830688007AF
:10144000F4D50EE0FFF764FA009007E0FFF760FACA
:101450000099411A41F28830814254D8306880079F
:10146000F4D42FB1DAF8001021F08051CAF800103E
:10147000A869C0B3DBF80010C1F3810102294AD08A
:101480000228484607D0C8F86000FFF741FA00E09C
:1014900039E005463AE04746C8F86000FFF738FAF9
:1014A000064604E0FFF734FA801B02282BD8206898
:1014B0008001F7D4D5E907010843A96A1C4A490805
:1014C00002EB01416A6A41EA8211084395F82C1047
:1014D00040EA01611148001F016001203866FFF7F2
:1014E00017FA054605E014E0FFF712FA401B022840
:1014F00009D820688001F7D50BE000BFFFF708FA94
:10150000401B022802D90320BDE8F88F2068800123
:10151000F4D40020F8E70120F6E700000838024084
:101520000038024000004742800E474200700040F1
:101530000000FFFF70B5040005D00025A56294F8F7
:10154000510010B106E0012070BD84F850502046D3
:1015500000F030F8022084F851002068016821F082
:1015600040010160D4E901010843D4E903121143A9
:10157000084361690843218B01F400710843E16964
:101580000843216A0843A16A084321680860A069EA
:10159000042101EA1040616A08432168486020681C
:1015A000C16921F40061C1616565012084F85100C1
:1015B000002070BD00B500680E4987B0884216D182
:1015C0000D480021026842F480520260006800F475
:1015D00080500590E02000900220CDE90101032019
:1015E00003900520049069460448FFF7C3F807B04C
:1015F00000BD0000003001404438024000000240BD
:101600002DE9F84F044640680026984617460D46D7
:101610004FF00409B0F5827F01D1A06890B194F831
:101620005000012819D04FF0010B84F850B0FFF79B
:101630006FF9009094F851004FF0000A01280ED085
:1016400002267FE084F8519013460A462046CDF8E2
:10165000008000F031F9BDE8F88F0220FBE7002D93
:101660006FD0002F6DD084F85190C4F854A0A563BA
:10167000A787E787C4F830A0A4F834A0A4F836A060
:10168000C4F840A0C4F844A0A0684FF40047B84292
:1016900004D12068016821F480410160206801685C
:1016A000490603D4016841F040010160E068B8B127
:1016B00033E020688168C90706D0007B05F8010B7C
:1016C000E08F401EE0870BE0B8F1000F23D0B8F1A7
:1016D000FF3F05D0FFF71CF90099411A41451AD286
:1016E000E08F0028E5D11BE020688168C90706D09B
:1016F000C06825F8020BE08F401EE0870DE0B8F1CE
:10170000000F08D0B8F1FF3F07D0FFF701F90099AB
:10171000411A414501D3032614E0E08F0028E3D1AC
:101720006068B0F5827F0AD1A068B84202D0B0F5F7
:10173000806F04D12068016821F040010160606D74
:1017400000B1012684F851B084F850A0304682E7F9
:101750002DE9F84F044690F85000002699461746A8
:101760000D4601280DD04FF0010B84F850B0FFF763
:10177000CFF8804694F85100B246012804D00226E2
:1017800094E00220BDE8F88F002D7BD0002F79D0A7
:10179000032084F85100C4F854A02563A786E78687
:1017A000C4F838A0A4F83CA0A4F83EA0C4F844A013
:1017B000C4F840A0A068B0F5004F04D120680168CB
:1017C00041F48041016020680168490603D4016842
:1017D00041F040010160E068B0F5006F606804D03E
:1017E00030B3E08E012823D03EE010B1E08E012816
:1017F0001AD135F8021B206805E020688168890746
:1018000006D535F8021BC160E08E401EE0860BE075
:10181000B9F1000F34D0B9F1FF3F05D0FFF778F8E8
:10182000A0EB080149452BD2E08E0028E5D11EE04F
:10183000216815F8010B087306E0206881688907A4
:1018400006D515F8011B0173E08E401EE0860BE003
:10185000B9F1000F14D0B9F1FF3F05D0FFF758F8E8
:10186000A0EB080149450BD2E08E0028E5D14B469C
:10187000012202212046CDF8008000F0FCFD10B1CD
:10188000032613E011E042464946204600F0E3FDFE
:1018900018B101262020606508E0A06818B920680A
:1018A000C16880680090606D00B1012684F851B075
:1018B00084F850A0304665E72DE9F84F044690F8CB
:1018C000500000260A9F9A4693460D464FF00108A5
:1018D00001280ED0012084F85000FFF719F8814646
:1018E00094F85100616801280CD0B1F5827F07D1CE
:1018F00002E00220BDE8F88FA16809B9042801D0F0
:101900000226BDE055B1BBF1000F07D0BAF1000FC0
:1019100004D094F85100012802D004E00126AFE081
:10192000052084F8510000206065C4F838B0A4F8A0
:101930003EA0A4F83CA02563A4F836A0A4F834A0E7
:101940002064606420680168490603D4016841F09E
:1019500040010160E068B0F5006F606804D0E8B352
:10196000E08E01283BD06AE010B1E08E01282ED134
:10197000216835F8020BC860E08E401EE08626E044
:10198000B8F1000F0DD0E08E58B12068816889074A
:1019900007D535F8021BC160E08E401EE0864FF08F
:1019A0000008E08F58B120688168C90707D0C06877
:1019B0002BF8020BE08F401EE0874FF00108781CE7
:1019C00005D0FEF7A5FFA0EB0900B84246D2E08E95
:1019D0000028D5D1E08F0028D2D136E0FFE721687A
:1019E00015F8010B0873E08E401EE08627E000BF6B
:1019F000B8F1000F0DD0E08E58B1206881688907DA
:101A000007D515F8011B0173E08E401EE0864FF0EC
:101A10000008E08F58B120688168C90707D0C06806
:101A20000BF8010BE08F401EE0874FF00108781C97
:101A300005D0FEF76DFFA0EB0900B8420ED2E08E94
:101A40000028D5D1E08F0028D2D13B4601220221C7
:101A50002046CDF8009000F00EFD08B103260FE0FF
:101A60004A463946204600F0F6FC18B101262020EF
:101A7000606505E0A06818B92068C16880680090BA
:101A8000012084F85100002084F85000304631E7EE
:101A90004FF0E0210428086903D020F00400086119
:101AA000704740F00400FAE7704710B5401EB0F1EF
:101AB000807F01D3012010BD4FF0E02460610F2131
:101AC000601700F0B7FC0020A06107202061002013
:101AD00010BD10B5FFF7E8FF10BD10B590F8382025
:101AE000012A25D0012280F83820CA688C6822F4A7
:101AF000407222434C6822F4806222430C6822F434
:101B0000006222430C6922F4805222434C6922F481
:101B1000005222438C6922F48042224322F4004185
:101B2000026800232143516480F83830002010BD42
:101B3000022010BD30B590F83820012A20D00122B3
:101B400080F83820022380F8393003685C6824F07C
:101B500070045C6003685C680D682C435C6003681B
:101B60009C6824F080049C6003689C6849680C436E
:101B70009C6080F83920002180F83810084630BD7C
:101B8000022030BD10B5040003D094F8390010B124
:101B900007E0012010BD002084F83800204600F046
:101BA0000DF8022084F83900211D206800F02EFD78
:101BB000012084F83900002010BD000008B500683D
:101BC0000C49884208D10C48016841F001010160CC
:101BD000006800F001000BE00849884209D106487E
:101BE000001F016841F004010160006800F004007A
:101BF000009008BD00000140443802400008004049
:101C000070B5044690F83800012817D0012584F8F3
:101C10003850022084F839002068826822F0770268
:101C200022F47F4282600868502837D00DDC2028DB
:101C300059D005DC88B3102841D151E0022070BD95
:101C4000302853D040283AD13FE060282ED0702869
:101C50000BD0B0F5805F03D0B0F5005F2FD110E05E
:101C60002068816821F0070115E0CB68D1E90121E6
:101C7000206800F01EFD2168886840F077008860C9
:101C80001DE0CB68D1E90121206800F012FD206839
:101C9000816841F48041816011E01EE0CA684968B2
:101CA000206800F0BBFD5021206806E0CA68496842
:101CB000206800F0C4FD6021206800F004FD84F875
:101CC0003950002084F8380070BDCA68496820681F
:101CD00000F0A4FD40212068EFE700212068ECE738
:101CE00010212068E9E720212068E6E730212068FC
:101CF000E3E7000000B5104B02680021022085B028
:101D00009A4209D102020092CDE901010120CDE9F8
:101D10000310694609480AE0094B9A4209D1921416
:101D20000092CDE90101CDE9031069460548FEF7AF
:101D300021FD05B000BD0000000001400010024080
:101D400000080040000C024070B5044690F83800CE
:101D50000D4601280DD0012684F83860022084F851
:101D6000390042B1042A18D0082A2AD00C2A4DD1B1
:101D700039E0022070BD206800F0AEFC2068816967
:101D800041F0080181612068816921F004018161CD
:101D9000206881692A69114311E0206800F0C4FCC1
:101DA0002068816941F4006181612068816921F4C2
:101DB00080618161206881692A6941EA022181612B
:101DC00024E0206800F0DCFC2068C16941F00801D3
:101DD000C1612068C16921F00401C1612068C16945
:101DE0002A69114311E0206800F0F6FC2068C169FF
:101DF00041F40061C1612068C16921F48061C16161
:101E00002068C1692A6941EA0221C16184F8396008
:101E1000002084F8380070BD10B5040003D094F899
:101E2000390010B107E0012010BD002084F838000F
:101E3000204600F00CF8022084F83900211D2068AB
:101E400000F0E4FB012084F83900002010BD704749
:101E500010B504460068012200F020FC0749206804
:101E6000884203D1416C41F400414164206801681B
:101E700041F001010160002010BD000000000140A0
:101E800001684A69D24352050CD46FF480624A61FA
:101E900004210164002140F8301F202242730173A5
:101EA00001207047002070472DE9F84F0446C06AB2
:101EB0001E4692460D4621680A6842F480620A6016
:101EC000042807D0012805D010F5803F02D0206BF0
:101ED000112804D12068016841F4807101604FF03D
:101EE00001185346002241462046009600F0BDF8F6
:101EF000B8BB206908F10109B0F5804F12D0062067
:101F0000216800EAD51747F0F000086133465246D1
:101F100008F10701204600F0D9F838B1206C0428F8
:101F20002FD01EE0E8B240F001001FE02168E8B2C7
:101F30000861334652464946204600F0C7F800285B
:101F4000ECD12068416981690091016841F4807198
:101F500001605346002241462046009600F085F875
:101F600010B10320BDE8F88F47F0F1002168086147
:101F7000334652464946204600F0A8F80028CDD105
:101F8000F0E70120EEE70000F8B50446C06A1E46FF
:101F90000D461746042807D0012805D010F5803FCC
:101FA00002D0206B122804D12068016841F48071AE
:101FB0000160134600224FF001112046009600F008
:101FC00054F8A0B92069B0F5804F12D006202168DE
:101FD00000EAD51040F0F000086133463A460E4959
:101FE000204600F073F838B1206C042811D003208B
:101FF000F8BD05F0FE0000E0E8B22168086106497E
:1020000033463A46891F204600F060F80028EBD19D
:10201000F8BD0120F8BD00000800010070B51646AB
:102020000D4604461AE02046FFF72AFF08B10120BA
:1020300070BD681C12D025B1FEF76AFC801BA84257
:102040000CD954F8400F40F0200044F8100900204B
:102050002060202161732073032070BD20684069D7
:10206000C0434007DFD4002070BD2DE9F0471E4675
:1020700090460D460446C1F30747DDF8209012E074
:10208000701C10D02EB1FEF743FCA0EB0900B0424B
:1020900009D9002044F8300F20216173A073207308
:1020A0000320BDE8F0872068012F0AD0806925EA67
:1020B00000000004000C06D000214145E0D00020C3
:1020C000EFE74069F3E70121F7E700002DE9F0476A
:1020D0009A4691460D46044600264FF02008C1F36B
:1020E00007472AE020684069C043400512D42068B1
:1020F000016841F40071016021686FF480604861FB
:1021000004202064266384F83D8084F83C6001202C
:10211000BDE8F087B9F1FF3F0FD0B9F1000F05D04E
:10212000FEF7F6FBA0EB0A01494506D944F8306FEB
:1021300084F80D8026730320EAE72068012F07D07A
:10214000D0F8180025EA00000004000CE0D0C9E730
:102150004069F7E72DE9F041002590460E46044618
:10216000202721E04069C043C0060CD421686FF0ED
:10217000100048612564256384F83D7084F83C5064
:102180000120BDE8F0812EB1FEF7C2FBA0EB0800F4
:10219000B04209D954F8400F40F0200044F8040937
:1021A000677025700320ECE720684169C943490640
:1021B000D8D40020E5E770B516460D4604461AE06F
:1021C0002046FFF75DFE08B1012070BD681C12D0EB
:1021D00025B1FEF79DFB801BA8420CD954F8400F97
:1021E00040F0200044F81009002020602021617395
:1021F0002073032070BD20684069C0430006DFD40F
:10220000002070BD2DE9F041234886B0002401680C
:1022100041F010010160016801F0100105910168B1
:1022200041F001010160016801F0010105910168BF
:1022300041F008010160016801F0080105910168A1
:1022400041F0020101600068144F00F002000590A7
:10225000012208213846FEF755FBDFF844804FF491
:102260001456002231464046FEF74CFB08200090F1
:102270000125CDE90154694638460394FEF77AFA00
:102280000096CDE90154694640460394FEF772FA80
:1022900006B0BDE8F0810000303802400010024076
:1022A000000C02400B4810B5094901600A49416021
:1022B00000214FF480428160C0E9031241618161D5
:1022C000C1610162FEF72AFB002800D0FEE710BDC5
:1022D0000054004030000020A08601000E4810B5D8
:1022E0000C4901604FF48271416000218160C1603E
:1022F0004FF400720161C0E905121022C0E9072104
:10230000416281620A21C162FFF714F9002800D0FE
:10231000FEE710BD003001408400002010B52648C3
:1023200094B02449016010210024C0E901144FF445
:102330007A71C0E903144461FFF724FC00B1FEE7A1
:102340004FF480500E900EA91B48FFF759FC00B1C6
:10235000FEE71948FFF760FD00B1FEE7129412A9ED
:1023600015481394FFF7E6FB00B1FEE76020CDE9C6
:1023700000040294039404940594002269460E48D4
:102380000694FFF7E1FC00B1FEE707940894099476
:102390004FF400500A94CDE90B4007A906480D946C
:1023A000FFF79BFB00B1FEE70348FFF7A3FC14B067
:1023B00010BD000000000140DC00002010B51C48EA
:1023C0008EB01A49016010210024C0E901144FF4B5
:1023D0007A71C0E90314FFF7D5FB00B1FEE74FF4B3
:1023E0008050079007A91248FFF70AFC00B1FEE7EA
:1023F0000F48FFF711FD00B1FEE70B940BA90C4845
:102400000C94FFF797FB00B1FEE76020CDE90004D4
:1024100002940022694606480494FFF795FC00B137
:10242000FEE70348FFF766FC0EB010BD0008004051
:10243000180100200907090E002806DA00F00F0035
:1024400000F1E02080F8141D704700F1E02080F8D2
:1024500000147047704738B50B46009204460022BE
:10246000802100F008F8002804D0606D40F02000C2
:102470006065032038BD2DE9F0411D4617460E4624
:102480000446DDF8188035E0681C33D02DB1FEF726
:102490003FFAA0EB0800A8422CD32068416821F045
:1024A000E00141606068B0F5827F0BD1A068B0F5B3
:1024B000004F02D0B0F5806F04D12068016821F090
:1024C00040010160A06AB0F5005F0AD12068016890
:1024D0004DF6FF72114001602068016841F400511F
:1024E0000160012084F85100002084F8500003208E
:1024F000BDE8F0812068806836EA000004D0002042
:10250000B842C1D10020F3E70120F9E7704710B5C8
:10251000FEF7EEFCBDE81040FFF7DBBA244810B52B
:10252000026892B0002142F080520260006800F020
:10253000805011901F48026842F4404202600068D7
:10254000022400F4404011900120039010200490D8
:10255000009406940820CDE90710CDE90A404021F7
:1025600009916846FEF758FE00B1FEE70F20CDE95D
:102570000C0490200E904FF480500F90109000218A
:102580000CA8FEF76BFD00B1FEE7FEF7FFFD4FF470
:102590007A71B0FBF1F0FFF788FA0420FFF778FAC0
:1025A00000221146501EFEF727FD12B010BD00009C
:1025B00040380240007000401048016841F470014A
:1025C00001600F48016841F0010101600C4A0021DF
:1025D0000832116002680B4B1A400260031D0A4A60
:1025E0001A60026822F48022026005480C30016003
:1025F00002495806803908607047000088ED00E005
:1026000000380240FFFFF6FE10300024F0B50268EB
:102610001B4B1C4C9F031C4D1C4E984207D0B842CC
:1026200005D0A04203D0A84201D0B04204D122F08C
:10263000700C4A6842EA0C02984210D0B8420ED0A0
:10264000A0420CD0A8420AD0B04208D0104CA04200
:1026500005D0104CA04202D00F4CA04203D122F46E
:102660004074CA68224302608A68C2620A68826251
:10267000984201D10969016301214161F0BD000067
:10268000000001400004004000080040000C004031
:1026900000400140004401400048014010B50123C2
:1026A000046A8B409C430462036A8A4013430362BA
:1026B00010BD10B5846842EA032224F47F440A4323
:1026C0002243826010BD826822F070020A4342F009
:1026D000070181607047000030B5026A22F00102F4
:1026E0000262026A4368846924F073050C682C4313
:1026F00022F002058A682A430A4DA8420BD122F033
:102700000805CA6823F440732A434D6922F0040285
:102710001D438B692B4343608461496841630262B6
:1027200030BD00000000014030B5026A22F0100206
:102730000262026A436884690D6824F4E64444EA4C
:1027400005248D6822F0200242EA05120B4DA842B2
:102750000ED1CD6822F0800242EA05124D6923F4C1
:10276000406343EA85038D6922F0400243EA850312
:102770004360846149688163026230BD00000140AA
:1027800030B5026A22F480720262036A4268C46948
:1027900023F4007324F073050C682C438D6843EA1E
:1027A00005230C4DA8420ED1CD6823F4006343EA03
:1027B00005234D6922F4405242EA05128D6923F443
:1027C000806342EA05124260C4614968C1630362E2
:1027D00030BD00000000014030B5026A22F4805292
:1027E0000262046A4268C3690D6823F4E64343EA5F
:1027F00005238D6824F4005444EA0534064DA842AC
:1028000004D14D6922F4804242EA85124260C361DC
:1028100049680164046230BD0000014010B5036ADC
:10282000046A24F001040462846924F0F00444EA98
:10283000021423F00A020A438461026210BD10B53B
:10284000036A23F0100303628369046A23F470436C
:1028500043EA023224F0A00343EA011182610162DB
:1028600010BD02E008C8121F08C1002AFAD1704743
:102870007047002001E001C1121F002AFBD1704700
:102880003EB5224CA8200A25207001232246332180
:102890001F480095FEF76AFA0623621C32211C4885
:1028A0000095FEF76FF934F8010F1A4A0009ADF8E8
:1028B00004006088DFED180A0009ADF80600A08862
:1028C0004FF400650009ADF80800002040F6FF74E1
:1028D00001AB00BF33F91010A94202DB6140C1F126
:1028E000010100EE101A02EB8001B8EEC00A81ED82
:1028F000000A02EB8001401C91ED000A032880EEE3
:10290000201A81ED001AE5DB3EBD00000A00002020
:10291000300000205401002000007A442DE9F041ED
:102920002DED028B82B000F075F92849E8200A23CA
:10293000087001222648FEF70BFF24490A230622CD
:10294000091D2348FEF75CFE00F05CF90A20FDF744
:10295000FFFE1E481E4D001D00240188ADF800102A
:102960004188ADF8021080889FED1A8BADF8040005
:102970004FF400486E46DC3536F81400404509D364
:102980004FF6FF714840C0F1010000EE100AB8EEAA
:10299000C00A03E000EE100AB8EE400A05EB84001E
:1029A00005EB840780ED000A3868FDF7CAFD53EC9B
:1029B000182BFDF757FDFDF7D7FD641C3860032C7D
:1029C000DADB02B0BDEC028BBDE8F0810000002034
:1029D00084000020CDCCCCCCCC8C4C402DED068B93
:1029E00082B000246D486C498A15016082806C4A6F
:1029F0008460C0E90342012282711430016009152C
:102A0000818068498460C0E903418271FEF778FAE9
:102A1000FFF784FDFFF7F6FBFFF780FCFFF7CEFC26
:102A2000FFF75CFCFFF73EFC5C4800219038FFF7A5
:102A30000FFA5A4800215438FFF70AFA4FF47A7017
:102A4000FDF786FE4FF49671544800F0BEF8012160
:102A5000524800F0B1F851484FF4FA71143000F0C8
:102A6000B4F84E480021143000F0A6F84E4D202650
:102A70000F202E70687000F0CDF8484832230222F3
:102A80002946E838FEF764FE00F0BCF800F0C2F812
:102A90004248A0272F70322301222946E838FEF74A
:102AA00057FE3E4832230122291DE838FEF7A8FDD3
:102AB00000F0A8F8232028701020687000F0AAF811
:102AC0003648142302222946E838FEF741FE00F07A
:102AD00099F800F081F80A3547202F7068700A27AE
:102AE00002232A46332131480097FEF73FF932206E
:102AF000FDF72EFEA32028706C7002232A46332196
:102B00002A480097FEF732F93220FDF721FE2E7099
:102B100001232A46332125480097FEF727F96C70D8
:102B20000123EA1F322121480097FEF72BF81F4DA1
:102B30009FED1FAB0C3D05F59E7700BFFFF7EEFE46
:102B4000FFF79EFE5FF0000405EB840607EB8400B0
:102B500096ED008A90ED000A38EE400A10EE100A59
:102B6000FDF7EFFCB0EE4A1AF0EE6A1A53EC112BA7
:102B7000FDF706FC41EC190B18EE100AFDF7E1FC1D
:102B800053EC192BFDF7F6FBFDF7EEFC641C3060EF
:102B9000032CD9DBD2E70000000C02406C010020BE
:102BA000000001400008004000000020300000202C
:102BB0009A9999999999B93F012900D001B98171E0
:102BC000827981880068FDF79DBE0269D162006943
:102BD000490841637047000010B50A2301223321E0
:102BE0000648FDF71FFF002806D1BDE810404FF44E
:102BF00000510348FDF782BE10BD000030000020E8
:102C0000000C0240012208210148FDF77BBE0000B4
:102C100000100240002208210148FDF773BE0000A9
:102C20000010024000000000000000000102030448
:102C30000607080900000000010203045C2C0008DC
:102C4000000000202400000062280008802C0008FA
:102C50002400002074050000722800080000000015
:102C60000000000000000000000000000000000064
:102C70000100000010000000000000000024F4002B
:040000050800019955
:00000001FF
