:020000040800F2
:1000000018050020AD010008B5010008B70100087F
:10001000B9010008BB010008BD0100080000000094
:100020000000000000000000000000008916000829
:10003000C101000800000000D11500088B1600085F
:10004000C7010008C7010008C7010008C701000870
:10005000C7010008C7010008C7010008C701000860
:10006000C7010008C7010008C7010008C701000850
:10007000C7010008C7010008C7010008C701000840
:10008000C7010008C7010008C70100080000000000
:10009000000000000000000000000000C701000890
:1000A000C7010008C7010008C7010008C701000810
:1000B000C7010008C7010008C7010008C701000800
:1000C000C7010008C7010008C7010008C7010008F0
:1000D000C7010008C7010008C701000800000000B0
:1000E000C7010008C7010008C701000800000000A0
:1000F000000000000000000000000000C701000830
:1001000000000000C7010008C7010008C70100087F
:1001100000000000000000000000000000000000DF
:10012000C7010008C7010008C7010008C70100088F
:10013000C7010008000000000000000000000000EF
:10014000000000000000000000000000C7010008DF
:10015000C7010008C7010008C7010008C70100085F
:10016000C7010008C70100080000000000000000EF
:10017000000000000000000000000000000000007F
:1001800000000000C701000800000000000000009F
:10019000C7010008C7010008DFF80CD000F068F8BC
:1001A00000480047FD190008180500200648804750
:1001B00006480047FEE7FEE7FEE7FEE7FEE7FEE74C
:1001C000FEE7FEE7FEE7FEE73517000899010008A5
:1001D0002DE9F05F0546002092469B46884606467C
:1001E000814640241BE0284641464746224600F00F
:1001F0002FF853465A46C01A914110D3114618465B
:10020000224600F016F82D1A67EB01084F462246E9
:100210000120002100F00DF817EB00094E41201ECF
:10022000A4F10104DFDC484631462A464346BDE8D6
:10023000F09F202A04DB203A00FA02F100207047E8
:100240009140C2F1200320FA03F319439040704714
:10025000202A04DB203A21FA02F00021704721FA1B
:1002600002F3D040C2F12002914008431946704782
:10027000064C074D06E0E06840F0010394E80700F3
:1002800098471034AC42F6D3FFF78AFFE81B00080A
:10029000081C000870B5044600F0D8F80546601C3C
:1002A00002D004480078044400F0D0F8401BA0427B
:1002B000FAD370BD0C0000202DE9F84FDFF860B1D3
:1002C00000224FF001084FF0030A4FF00F090BF125
:1002D000040E00BF0B6808FA02F42340A3426ED15B
:1002E0004D68022D01D0122D0ED1D50800EB850CE2
:1002F000DCF820505607F70E09FA07F6B5430E69E9
:10030000BE402E43CCF82060066855000F790AFAEB
:1003100005FC07F0030726EA0C06AF4037430760E9
:100320004E68012E05D0022E03D0112E01D0122EC0
:100330000ED18668CF6826EA0C06AF403743876047
:100340004668A6430C79C4F30014944034434460D7
:10035000C6688C6826EA0C06AC403443C4604C681E
:10036000E40056D52F4C256845F480452560246867
:1003700022F0030504F4804400942B4C2E19D6F887
:10038000084895072F0F09FA07F5AC43274DA842F7
:1003900001D1002515E0264DA84201D1012510E02C
:1003A000244DA84201D102250BE0234DA84201D1E2
:1003B000032506E0214DA84202D1042501E028E0F2
:1003C0000725BD402543C6F80858DBF800405D46C8
:1003D0004E689C43F60300D51C432C60DEF80040B9
:1003E00075464E689C43B60300D51C432C600C4DEB
:1003F00008352C684E689C43F60200D51C432C60DF
:10040000074D0C352C684E689C43B60200D51C4342
:100410002C60521C102AFFF45DAFBDE8F88F00007D
:10042000003C0140443802400030014000000240DE
:100430000004024000080240000C0240001002408C
:100440000AB1816170470904FBE700000148806838
:10045000704700000C0000200248816802781144B7
:10046000816070470C0000200B4810B5016841F412
:1004700000710160016841F480610160016841F42C
:1004800080710160032000F08BF8002000F006F876
:1004900000F024F8002010BD003C024070B50D4D66
:1004A00004464FF47A712878B1FBF0F00A490968E4
:1004B000B1FBF0F000F09DFD48B9102C07D20022EE
:1004C0002146501E00F04CF800206C6070BD0120E9
:1004D00070BD00000C000020180000201F4808B567
:1004E000016841F480410160006800F480400090A0
:1004F0001A48001F016841F080510160006800F057
:1005000080500090072000F04BF8002211466FF059
:100510000B0000F025F8002211466FF00A0000F0F1
:100520001FF8002211466FF0090000F019F80022B0
:100530001146501F00F014F800221146101F00F061
:100540000FF800221146901E00F00AF80022BDE8C4
:1005500008401146501E00F003B800004438024025
:10056000F0B40E4B1B680C46C3F30223C3F107051E
:10057000042D00D90425191D072901D2002300E00C
:10058000DB1E012606FA05F1491E214099409E40D6
:10059000761E16403143F0BC01F00AB80CED00E0C5
:1005A000064900F0070208684FF6FF03184040EACA
:1005B0000220034A10430860704700000CED00E081
:1005C0000000FA052DE9F0470E46050065D0DFF87A
:1005D0001481D8F80000F7B200F00F00B04207D243
:1005E00088F80070D8F8000000F00F00B04254D135
:1005F00028683D4C810712D5400703D5206840F498
:10060000E05020602878000703D5206840F460405F
:1006100020602068A96820F0F00008432060287856
:10062000C0072DD0304968680839012812D0022847
:1006300013D0032811D00968890700292DDA216811
:1006400021F0030101432160FFF700FF814641F2E1
:10065000883A0EE009688903EFE709688901ECE749
:10066000FFF7F4FEA0EB0901514502D90320BDE8D4
:10067000F0872068696800F00C00B0EB810FEFD1C3
:10068000D8F80010404601F00F01B14207D90770B9
:10069000006800F00F00B04201D00120E7E72878A1
:1006A000400705D52068E96820F4E0500843206041
:1006B0002878000706D52068296920F4604040EAC0
:1006C000C100206000F01CF82168084AC1F3031142
:1006D000515CC840064908600020FFF7DFFE00209B
:1006E000C5E70000003C024008380240D81B000863
:1006F0001800002001480068704700001800002022
:10070000154810B5006810F00C02144813D04110C1
:10071000042A0FD0082A0ED10F4C241F2268236808
:1007200002F03F025B0207D52068C0F38810A0FBEF
:10073000010106E0084610BD2168C1F38811A1FB44
:1007400000010023FFF744FD2168C1F30141491C6A
:100750004900B0FBF1F010BD083802400024F4005D
:100760002DE9F84F050076D02878DFF8F8B2BE4CB6
:10077000C00749D0DBF800105846C1F381010129B8
:1007800008D00068C0F3810002280AD1201D00684B
:10079000400206D52068800336D568680028E2D07C
:1007A00032E06868B0F5803F10D0B0F5A02F206827
:1007B00010D020F480302060206820F48020206059
:1007C0006868A0B1FFF742FE06460CE0206840F4DE
:1007D0008030F4E740F480202060F7E7FFF736FE32
:1007E000801B642873D820688003F7D50CE0FFF7DE
:1007F0002DFE064605E000BFFFF728FE801B64289B
:10080000F0D820688003F7D42878DFF8608280076A
:100810004FF000093ED5DBF80010584611F00C0FE0
:1008200009D00068C0F3810002280BD18D48001F59
:100830000068400206D42068800715D5E8680128C2
:1008400009D111E0E868B8B10120C8F80000FFF74D
:10085000FDFD064605E002E1FFF7F8FD801B0228DA
:10086000C0D820688007F7D52068296920F0F800F3
:1008700040EAC10020600DE0C8F80090FFF7E6FDF7
:10088000064604E0FFF7E2FD801B02281FD820681F
:100890008007F7D42878000722D5724E744869691A
:1008A0006C3671B101210160FFF7D0FD074604E00D
:1008B000FFF7CCFDC01B022809D830688007F7D5A8
:1008C0000EE0C0F80090FFF7C1FD074605E083E0A9
:1008D000FFF7BCFDC01B02287ED830688007F7D424
:1008E0002878400768D5DFF87CA100270AF1380A8C
:1008F000DAF80000C0000BD4DAF8001041F08051A3
:10090000CAF80010DAF80000012700F080500090CB
:10091000584E3068C00510D4306840F480703060A4
:10092000FFF794FD009005E0FFF790FD0099401A55
:10093000022851D83068C005F6D54A4EA8686836F6
:1009400001280FD00528306810D020F00100306059
:10095000306820F004003060A868B8B1FFF776FD79
:1009600000900FE0306840F00100F4E740F0040030
:100970003060F7E7FFF76AFD0099411A41F28830CD
:10098000814264D830688007F4D50EE0FFF75EFD41
:10099000009007E0FFF75AFD0099411A41F28830B4
:1009A000814254D830688007F4D42FB1DAF80010AF
:1009B00021F08051CAF80010A869C0B3DBF800101C
:1009C000C1F3810102294AD00228484607D0C8F85D
:1009D0006000FFF73BFD00E039E005463AE047469E
:1009E000C8F86000FFF732FD064604E0FFF72EFD71
:1009F000801B02282BD820688001F7D4D5E9070195
:100A00000843A96A1C4A490802EB01416A6A41EAA3
:100A10008211084395F82C1040EA01611148001F2B
:100A2000016001203866FFF711FD054605E014E07E
:100A3000FFF70CFD401B022809D820688001F7D57C
:100A40000BE000BFFFF702FD401B022802D9032084
:100A5000BDE8F88F20688001F4D40020F8E7012079
:100A6000F6E7000008380240003802400000474224
:100A7000800E4742007000400000FFFF70B5040088
:100A800005D00025A56294F8510010B106E00120C0
:100A900070BD84F85050204600F030F8022084F8F1
:100AA00051002068016821F040010160D4E9010192
:100AB0000843D4E903121143084361690843218BB9
:100AC00001F400710843E1690843216A0843A16AFF
:100AD000084321680860A069042101EA1040616AA6
:100AE0000843216848602068C16921F40061C16140
:100AF0006565012084F85100002070BD00B50068D4
:100B00000E4987B0884216D10D480021026842F490
:100B100080520260006800F480500590E020009050
:100B20000220CDE9010103200390052004906946CD
:100B30000448FFF7C1FB07B000BD000000300140D2
:100B400044380240000002402DE9F84F0446406856
:100B50000026984617460D464FF00409B0F5827FEF
:100B600001D1A06890B194F85000012819D04FF03D
:100B7000010B84F850B0FFF769FC009094F8510025
:100B80004FF0000A01280ED002267FE084F8519031
:100B900013460A462046CDF8008000F031F9BDE842
:100BA000F88F0220FBE7002D6FD0002F6DD084F866
:100BB0005190C4F854A0A563A787E787C4F830A074
:100BC000A4F834A0A4F836A0C4F840A0C4F844A007
:100BD000A0684FF40047B84204D12068016821F4AE
:100BE0008041016020680168490603D4016841F032
:100BF00040010160E068B8B133E020688168C9074E
:100C000006D0007B05F8010BE08F401EE0870BE06B
:100C1000B8F1000F23D0B8F1FF3F05D0FFF716FC65
:100C20000099411A41451AD2E08F0028E5D11BE016
:100C300020688168C90706D0C06825F8020BE08FDC
:100C4000401EE0870DE0B8F1000F08D0B8F1FF3F7B
:100C500007D0FFF7FBFB0099411A414501D303265A
:100C600014E0E08F0028E3D16068B0F5827F0AD1FC
:100C7000A068B84202D0B0F5806F04D12068016846
:100C800021F040010160606D00B1012684F851B08F
:100C900084F850A0304682E72DE9F84F044690F8DA
:100CA00050000026994617460D4601280DD04FF0FA
:100CB000010B84F850B0FFF7C9FB804694F851004F
:100CC000B246012804D0022694E00220BDE8F88F45
:100CD000002D7BD0002F79D0032084F85100C4F878
:100CE00054A02563A786E786C4F838A0A4F83CA0E2
:100CF000A4F83EA0C4F844A0C4F840A0A068B0F591
:100D0000004F04D12068016841F4804101602068EF
:100D10000168490603D4016841F040010160E068C0
:100D2000B0F5006F606804D030B3E08E012823D0A6
:100D30003EE010B1E08E01281AD135F8021B206880
:100D400005E020688168890706D535F8021BC16077
:100D5000E08E401EE0860BE0B9F1000F34D0B9F10F
:100D6000FF3F05D0FFF772FBA0EB080149452BD2EE
:100D7000E08E0028E5D11EE0216815F8010B08730C
:100D800006E020688168890706D515F8011B017304
:100D9000E08E401EE0860BE0B9F1000F14D0B9F1EF
:100DA000FF3F05D0FFF752FBA0EB080149450BD2EE
:100DB000E08E0028E5D14B46012202212046CDF8E5
:100DC000008000F016FC10B1032613E011E042464B
:100DD0004946204600F0FDFB18B101262020606541
:100DE00008E0A06818B92068C16880680090606D4C
:100DF00000B1012684F851B084F850A0304665E770
:100E00002DE9F84F044690F8500000260A9F9A46B4
:100E100093460D464FF0010801280ED0012084F8BA
:100E20005000FFF713FB814694F8510061680128D8
:100E30000CD0B1F5827F07D102E00220BDE8F88F27
:100E4000A16809B9042801D00226BDE055B1BBF163
:100E5000000F07D0BAF1000F04D094F85100012818
:100E600002D004E00126AFE0052084F85100002004
:100E70006065C4F838B0A4F83EA0A4F83CA025638F
:100E8000A4F836A0A4F834A0206460642068016847
:100E9000490603D4016841F040010160E068B0F503
:100EA000006F606804D0E8B3E08E01283BD06AE0B0
:100EB00010B1E08E01282ED1216835F8020BC860F0
:100EC000E08E401EE08626E0B8F1000F0DD0E08EE7
:100ED00058B120688168890707D535F8021BC160C1
:100EE000E08E401EE0864FF00008E08F58B1206889
:100EF0008168C90707D0C0682BF8020BE08F401E3D
:100F0000E0874FF00108781C05D0FFF79FFAA0EBAF
:100F10000900B84246D2E08E0028D5D1E08F0028E3
:100F2000D2D136E0FFE7216815F8010B0873E08E97
:100F3000401EE08627E000BFB8F1000F0DD0E08E24
:100F400058B120688168890707D515F8011B01731E
:100F5000E08E401EE0864FF00008E08F58B1206818
:100F60008168C90707D0C0680BF8010BE08F401EED
:100F7000E0874FF00108781C05D0FFF767FAA0EB77
:100F80000900B8420ED2E08E0028D5D1E08F0028AB
:100F9000D2D13B46012202212046CDF8009000F03C
:100FA00028FB08B103260FE04A463946204600F0E8
:100FB00010FB18B101262020606505E0A06818B973
:100FC0002068C16880680090012084F851000020EA
:100FD00084F85000304631E74FF0E02104280869DA
:100FE00003D020F004000861704740F00400FAE7E5
:100FF000704710B5401EB0F1807F01D3012010BDB5
:101000004FF0E02460610F21601700F0D1FA00205A
:10101000A06107202061002010BD10B5FFF7E8FF98
:1010200010BD10B590F83820012A25D0012280F893
:101030003820CA688C6822F4407222434C6822F43B
:10104000806222430C6822F4006222430C6922F47D
:10105000805222434C6922F4005222438C6922F4CC
:101060008042224322F4004102680023214351645C
:1010700080F83830002010BD022010BD30B590F847
:101080003820012A20D0012280F83820022380F85D
:10109000393003685C6824F070045C6003685C6845
:1010A0000D682C435C6003689C6824F080049C609D
:1010B00003689C6849680C439C6080F839200021D3
:1010C00080F83810084630BD022030BD10B504004D
:1010D00003D094F8390010B107E0012010BD0020C2
:1010E00084F83800204600F00DF8022084F839001A
:1010F000211D206800F048FB012084F83900002001
:1011000010BD000008B500680C49884208D10C48A1
:10111000016841F001010160006800F001000BE08E
:101120000849884209D10648001F016841F00401BE
:101130000160006800F00400009008BD000001405C
:10114000443802400008004070B5044690F838006A
:10115000012817D0012584F83850022084F839007E
:101160002068826822F0770222F47F428260086859
:10117000502837D00DDC202859D005DC88B3102842
:1011800041D151E0022070BD302853D040283AD1DF
:101190003FE060282ED070280BD0B0F5805F03D0E0
:1011A000B0F5005F2FD110E02068816821F00701C1
:1011B00015E0CB68D1E90121206800F038FB2168F7
:1011C000886840F0770088601DE0CB68D1E9012194
:1011D000206800F02CFB2068816841F48041816028
:1011E00011E01EE0CA684968206800F0D5FB502174
:1011F000206806E0CA684968206800F0DEFB6021CC
:10120000206800F01EFB84F83950002084F8380074
:1012100070BDCA684968206800F0BEFB40212068A4
:10122000EFE700212068ECE710212068E9E72021A2
:101230002068E6E730212068E3E7000000B5104BA6
:1012400002680021022085B09A4209D10202009270
:10125000CDE901010120CDE90310694609480AE002
:10126000094B9A4209D192140092CDE90101CDE9CE
:10127000031069460548FFF71FF805B000BD0000E0
:10128000000001400010024000080040000C024035
:1012900070B5044690F838000D4601280DD001269F
:1012A00084F83860022084F8390042B1042A18D04A
:1012B000082A2AD00C2A4DD139E0022070BD2068BE
:1012C00000F0C8FA2068816941F008018161206856
:1012D000816921F004018161206881692A691143D3
:1012E00011E0206800F0DEFA2068816941F40061B5
:1012F00081612068816921F4806181612068816950
:101300002A6941EA0221816124E0206800F0F6FAAE
:101310002068C16941F00801C1612068C16921F0FC
:101320000401C1612068C1692A69114311E0206884
:1013300000F010FB2068C16941F40061C1612068C0
:10134000C16921F48061C1612068C1692A6941EAEB
:101350000221C16184F83960002084F8380070BD32
:1013600010B5040003D094F8390010B107E0012053
:1013700010BD002084F83800204600F00CF8022050
:1013800084F83900211D206800F0FEF9012084F85E
:101390003900002010BD704710B5044600680122D6
:1013A00000F03AFA07492068884203D1416C41F4C1
:1013B000004141642068016841F0010101600020A2
:1013C00010BD0000000001402DE9F0411F4886B02B
:1013D0000024016841F010010160016801F0100172
:1013E0000591016841F001010160016801F001010E
:1013F0000591016841F0080101600068144F00F098
:1014000008000590012208213846FFF719F8DFF897
:1014100044804FF4A066002231464046FFF710F8A2
:10142000082000900125CDE901546946384603940F
:10143000FEF742FF0096CDE9015469464046039409
:10144000FEF73AFF06B0BDE8F081000030380240F8
:1014500000100240000C02400E4810B50C4901601B
:101460004FF48271416000218160C1604FF40072CD
:101470000161C0E905121022C0E9072141628162C1
:101480000A21C162FFF7FAFA002800D0FEE710BD7A
:10149000003001401C00002010B5264894B02449BB
:1014A000016010210024C0E901144FF47A71C0E9F1
:1014B00003144461FFF70AFE00B1FEE74FF48050C9
:1014C0000E900EA91B48FFF73FFE00B1FEE719483A
:1014D000FFF746FF00B1FEE7129412A915481394D6
:1014E000FFF7CCFD00B1FEE76020CDE900040294D7
:1014F000039404940594002269460E480694FFF76D
:10150000C7FE00B1FEE70794089409944FF4005019
:101510000A94CDE90B4007A906480D94FFF781FD19
:1015200000B1FEE70348FFF789FE14B010BD0000CC
:10153000000001407400002010B51C488EB01A490C
:10154000016010210024C0E901144FF47A71C0E950
:101550000314FFF7BBFD00B1FEE74FF48050079086
:1015600007A91248FFF7F0FD00B1FEE70F48FFF7AB
:10157000F7FE00B1FEE70B940BA90C480C94FFF7A3
:101580007DFD00B1FEE76020CDE900040294002259
:10159000694606480494FFF77BFE00B1FEE7034866
:1015A000FFF74CFE0EB010BD00080040B000002058
:1015B0000907090E002806DA00F00F0000F1E0200C
:1015C00080F8141D704700F1E02080F80014704787
:1015D000704738B50B46009204460022802100F087
:1015E00008F8002804D0606D40F0200060650320FA
:1015F00038BD2DE9F0411D4617460E460446DDF87C
:10160000188035E0681C33D02DB1FEF71FFFA0EB2A
:101610000800A8422CD32068416821F0E001416015
:101620006068B0F5827F0BD1A068B0F5004F02D0A2
:10163000B0F5806F04D12068016821F0400101609D
:10164000A06AB0F5005F0AD1206801684DF6FF720C
:10165000114001602068016841F4005101600120DF
:1016600084F85100002084F850000320BDE8F08188
:101670002068806836EA000004D00020B842C1D15A
:101680000020F3E70120F9E7704710B5FEF7E4FE0C
:10169000BDE81040FFF7C1BC244810B5026892B005
:1016A000002142F080520260006800F080501190EA
:1016B0001F48026842F4404202600068022400F4BD
:1016C0004040119001200390102004900094069453
:1016D0000820CDE90710CDE90A404021099168466C
:1016E000FFF73EF800B1FEE70F20CDE90C04902093
:1016F0000E904FF480500F90109000210CA8FEF730
:1017000061FF00B1FEE7FEF7F5FF4FF47A71B0FB21
:10171000F1F0FFF76EFC0420FFF75EFC002211469B
:10172000501EFEF71DFF12B010BD000040380240F1
:10173000007000401048016841F4700101600F48DA
:10174000016841F0010101600C4A0021083211607A
:1017500002680B4B1A400260031D0A4A1A600268B5
:1017600022F48022026005480C30016002495806CC
:10177000803908607047000088ED00E000380240C2
:10178000FFFFF6FE10300024F0B502681B4B1C4C26
:101790009F031C4D1C4E984207D0B84205D0A04272
:1017A00003D0A84201D0B04204D122F0700C4A68A4
:1017B00042EA0C02984210D0B8420ED0A0420CD09F
:1017C000A8420AD0B04208D0104CA04205D0104C1C
:1017D000A04202D00F4CA04203D122F44074CA6848
:1017E000224302608A68C2620A688262984201D11A
:1017F0000969016301214161F0BD00000000014061
:101800000004004000080040000C0040004001407F
:10181000004401400048014010B50123046A8B4098
:101820009C430462036A8A401343036210BD10B5EF
:10183000846842EA032224F47F440A4322438260FC
:1018400010BD826822F070020A4342F007018160F5
:101850007047000030B5026A22F001020262026A9B
:101860004368846924F073050C682C4322F0020558
:101870008A682A430A4DA8420BD122F00805CA689B
:1018800023F440732A434D6922F004021D438B69FF
:101890002B434360846149684163026230BD0000AC
:1018A0000000014030B5026A22F010020262026AB2
:1018B000436884690D6824F4E64444EA05248D688D
:1018C00022F0200242EA05120B4DA8420ED1CD684B
:1018D00022F0800242EA05124D6923F4406343EA94
:1018E00085038D6922F0400243EA850343608461E9
:1018F00049688163026230BD0000014030B5026A70
:1019000022F480720262036A4268C46923F400739D
:1019100024F073050C682C438D6843EA05230C4DB5
:10192000A8420ED1CD6823F4006343EA05234D6934
:1019300022F4405242EA05128D6923F4806342EAA0
:1019400005124260C4614968C163036230BD000092
:101950000000014030B5026A22F480520262046A3B
:101960004268C3690D6823F4E64343EA05238D68A2
:1019700024F4005444EA0534064DA84204D14D69CC
:1019800022F4804242EA85124260C36149680164E0
:10199000046230BD0000014010B5036A046A24F0FF
:1019A00001040462846924F0F00444EA021423F080
:1019B0000A020A438461026210BD10B5036A23F073
:1019C000100303628369046A23F4704343EA02321A
:1019D00024F0A00343EA01118261016210BD02E01C
:1019E00008C8121F08C1002AFAD1704770470020AA
:1019F00001E001C1121F002AFBD170476148604B12
:101A000001229915036081805F4901610021816095
:101A1000C160827114300360930283805B4B8160EC
:101A2000C0E903138271FEF71FFDFFF735FEFFF7D4
:101A3000CBFCFFF731FDFFF77FFDFFF70DFD5148B0
:101A400000217838FFF7A8FC4E4800213C38FFF70A
:101A5000A3FC4FF47A70FEF71DFC4FF496714948D1
:101A600000F0A3F80121474800F096F845484FF4EC
:101A7000FA71143000F099F842480021143000F057
:101A80008BF8434C2020611E20700F2060702E20A8
:101A90000870404D002208212846FEF7D1FC394845
:101AA000322302222146D038FFF7F6F8012208211E
:101AB0002846FEF7C5FC002208212846FEF7C0FC98
:101AC000A02020702F48322301222146D038FFF772
:101AD000E3F82C4832230122A11CD038FFF734F858
:101AE000012208212846FEF7ABFCA926251DAB27BD
:101AF0004FF0AD0800F068F822482670322301222A
:101B00002349D038FFF7C8F821491E483223012263
:101B1000091DD038FFF718F800F04EF83220FEF714
:101B2000B9FB00F051F817482770322301221849F9
:101B3000D038FFF7B1F8134832230122A91CD0385E
:101B4000FFF702F800F038F83220FEF7A3FB00F0B0
:101B50003BF80C4884F80080322301220C49D0382D
:101B6000FFF79AF8074832230122291DD038FEF7E3
:101B7000EBFF00F021F83220FEF78CFBBAE7000003
:101B8000000C0240EC000020000001400008004072
:101B90000100002000100240012900D001B981712C
:101BA000827981880068FEF74BBC0269D1620069C6
:101BB0004908416370470000012208210148FEF7EF
:101BC0003FBC000000100240002208210148FEF73F
:101BD00037BC0000001002400000000000000000C0
:101BE0000102030406070809081C00080000002081
:101BF0001C000000DE190008241C00081C00002046
:101C0000FC040000EE1900080000000000000000C5
:101C100000000000010000001000000000000000B3
:041C20000024F400A8
:040000050800019955
:00000001FF
